:020000040000fa
:080000000002040000000000f2
:020000040000fa
:10040000aff82200007f24000001880000000000f7
:100410000c000700a0572100110020001100070068
:10042000000020000000e000020032000000020096
:100430000000000004630200010000000040da0038
:100440000000fe004440a90060dd21000000e00043
:100450000300320000002000a00188004440a800f2
:100460000000060091018800800078000000eb0089
:1004700015003700e280400032a0b4009101ba00bc
:10048000e280400032a0b4009102ba00e280400055
:1004900032a0b4000002eb00472bde00f507b200eb
:1004a000602ce10004003a000059eb008301e900f0
:1004b000fdff3e00040037006128e100010032002a
:1004c0000082eb00040007001101ba000200e00006
:1004d000e8ff3a00000006003159ba008301e90044
:1004e0000c0032002159ba008301e90008003200f3
:1004f0000400e00003003a00e280400032a0b400b3
:10050000f5ff370011d9ba008301e900faff3a007c
:100510008100e800e180400032a0b4000000060045
:10052000bef80400000000003c530400010000007d
:100530006453040001000000bc53040001000000eb
:10054000f8530400010000003654040001000000cc
:100550000c59040001000000900704000000000096
:1005600022080400000000001c110400000000002c
:100570001811040000000000a81b04000000000087
:10058000b2040400000000002600fa00889fbe00ac
:100590008a9fbe008c1f78008001780001047800db
:1005a000020578000000eb00bc16e2002b003200d0
:1005b000e28f510028003e0000022000800f510011
:1005c00013003600f08457000cfe2f0080057800e1
:1005d00000fd2f000f00400018587800808f540055
:1005e000fdff3a000c0545009bbf9f00e0b5800071
:1005f0008001eb004201200001fd2f008f804000b0
:10060000f6050200010000008b0f5500f0ff3e00d0
:100610000a00e000100032000000eb009840780073
:1006200002fd2f000f014100017178000000e80079
:10063000800f5500faff3a009abf9f00e0b5800096
:100640008001eb004201200001fd2f008f8040005f
:10065000f6050200010000000a0078004f0678004d
:100660004f05be004f04be000080fa0000000600e7
:1006700080007800010037000000e8001004e0006e
:10068000fdff3a0001005000000006000002780063
:100690000000eb000b0037009441780091cf51002f
:1006a000030032000080eb00090039001000050053
:1006b0000000e8000304e000040032000402e80047
:1006c0008100e800820f5000f3ff3a000000eb00c9
:1006d00000000600ec874700889fbe008a9fbe008e
:1006e0008c9fbe008e1f7800f0b79f0081bf9f00d7
:1006f0008204780000047800010037000804e80054
:10070000184778000e00fb00eb0107000000e00036
:10071000faff3a00d0c2b300804f57000500320004
:1007200000c0e900804f5700020032000047780007
:10073000010037000804e8000900e000450035002a
:10074000e18f54004300320040022000808f5400ab
:1007500040003c000900e0000e003400f08f54001f
:100760001a003a0000c3b300984f100016003a0078
:100770009840900080c7b30080cf50000300320043
:1007800080c5b30080cf50000f003a000884e80015
:100790000e003700a900200000c3b300984f1000de
:1007a0000a003a009840900080c7b30080cf500004
:1007b000040032008900200080c5b30080cf5000c3
:1007c00002003a000884e8000901200008057800ca
:1007d00000c3b300010037000a05e8009a4f10007b
:1007e000fdff32008a0578006066b8000e00370011
:1007f000509c210000425200c4ef9f006149b900a3
:100800000c00be00371307004fea97000401fb00fd
:10081000cf91de008b05e800ccb79f00ddb79f00cd
:1008200000064100818649001b00fb00ff00070015
:100830008000780009017800509c21002502070003
:10084000000278000000e000e9ff3a008b0f54003e
:1008500006003a000fb897000000e00029003200bf
:10086000ffb0970001087800260037008a80550005
:10087000009a210060c07c000000fb000080500056
:10088000160033004240a9000f003c004fe99700da
:100890000200fb00cf80de000000560081805e0079
:1008a000800f5600818f5e00070039006149b90052
:1008b000121307004fb19700dfb19700820f50006d
:1008c000838f58000500320020022000c0de88001f
:1008d0000086eb008086eb0005003700d0c2b30035
:1008e000804f570002003a0060061600e0861e00a6
:1008f0008fb997000300e000030032008b097800f5
:10090000010037006066b8000c00be004f07780099
:100910004f06be004f05be004f04be00cf00b10021
:1009200000000600040037000204e00001003a0065
:10093000000005000000e80010417800814f5100e0
:10094000f9ff3a00000006008001eb0002003700ca
:1009500061f079008301e800828f5100fcff3a00ca
:100960000000060000047800060037008200410005
:1009700060de8000e10078000200e80050de8800c0
:100980000100010052de800070de8000800f510007
:10099000f6ff390020a3210060de8800200220003d
:1009a00070de8800080078008e1207000195210093
:1009b0002d023700800178008002eb000100370033
:1009c0008459780005035100828f520009003200db
:1009d00065c278008502e8000404e000f8ff3a00f0
:1009e00083007800068141008058eb00828f500020
:1009f000fdff3a00000006008001eb000200370016
:100a0000817178008301e800828f5100fcff3a0079
:100a100000000600889fbe00e30440000900a1001a
:100a2000808f54004a003600e38f540001003e00de
:100a30004900200092de80000200e0000200320047
:100a4000820078000c00370041bd21000300370010
:100a5000908f5400230036008080e8001100780059
:100a60000000e000faff3a000f003700908f5400ba
:100a70001c0036008080e800110078000000e000d3
:100a8000faff3a001201780041bd2100030037004f
:100a9000908f5400130036008080e8001100780029
:100aa000820f5000faff3a0088de8000890f540060
:100ab00001003100090478000800780010020700e6
:100ac0000000e00004003a00890f540020003200ca
:100ad0000804d100f5ff3700081878001f00070050
:100ae000d4ff370011017800920178006480510032
:100af000890f500003003100120090008008780038
:100b0000070037000900410080087800920190003a
:100b10001300980011007800128814000909780069
:100b2000910078000100e000050032001100900003
:100b30000000e000020032000180e8000100370000
:100b40000000eb0090de88000280e8000100370022
:100b50000000eb004f04be00000006000000e000b3
:100b6000310032008080e90091027800e38f52006a
:100b70002d0036000508a3002b003a00a2de8000fd
:100b80000200e00002003200828f500004003100b9
:100b900002087800a1de8800160037000301780003
:100ba000920190000300e00002003200818f5100aa
:100bb000faff39001202780004004100808f5000d3
:100bc00019003900810f500003003a000509420066
:100bd00082007800070037000300e00003003200c5
:100be00005804000808f51000f003900930098006d
:100bf00011019800110190000200e0000a0032008b
:100c000011804000820f500007003a0020bd2100f3
:100c10000008eb00110090001101780090084100dd
:100c200010009000900098000000060080007800fe
:100c30001104b100030035009101b10001003c0036
:100c40000050a00000000600800078001106b100ee
:100c5000030035009101b10001003c000050a100eb
:100c60000000060080017800000178003140780023
:100c7000005978000004e000fcff3a00030078000f
:100c800000000600889fbe00800478000104780000
:100c90000100e000090032008192210020b0210013
:100ca0009e01070081922100080078009b01070047
:100cb00081922100f0b0210098010700819221006b
:100cc00009007800950107008192210040b12100c0
:100cd000920107000000eb00d60107001000200081
:100ce00011020700100020001eff07000200fa009a
:100cf000889fbe008a9fbe008c1f78008005780008
:100d000001057800020678000100e00001003a00c9
:100d10006c8557000b047800010037000804e800d8
:100d2000984478000900fb00630007000000e00021
:100d3000faff3a00d0c2b30080cf54000500320061
:100d400000c0e90080cf54000200320080447800e7
:100d5000010037000804e8000c0178008a007800e0
:100d6000080078005bfe07000001be009a0f5400e7
:100d700001003a000b0d78009a8f550003003a00ed
:100d8000e00f5100e08f59000f003a00b0c2b300ed
:100d900080cf540004003a00e00f5100e08f59006a
:100da00015003d0008003700d0c2b30080cf5400ca
:100db00011003a000000200001002800800f5100bf
:100dc000818f59000a00360020022000c0de880012
:100dd00002002000030028006b40400080cf540038
:100de00005003200f2ff2f00f3ff2700020037005a
:100df00060011100e08119000200be004f0678007a
:100e00004f05be004f04be000080fa00000006003f
:100e1000040037000204e0000a0032000000e8008d
:100e20008100e80010417800914f5100f9ff320035
:100e30000081eb0010407800914f50000400390011
:100e4000020037000001eb00010037001200200013
:100e500002007800000006008001eb000800370067
:100e6000e342780063c278008301e80084cf520037
:100e7000030032000080eb00040039001000050080
:100e8000828f5100f6ff3a000000eb0000000600e0
:100e90001004b100070035009001b10004003400d7
:100ea0007000b100030035009001b10001003c006a
:100eb00010000500000005006900e1000400350095
:100ec0006d00e100030034000002b10001003200b7
:100ed00000000500100005001002b1000f003500f1
:100ee000e000b1000c003400b000b1000b00350090
:100ef0006000b10008003400b001b1000700350007
:100f00005000b10004003400b001b100030035000e
:100f10003000b10001003c00100005000000050099
:100f2000881f78000204780087fe07000800400050
:100f30004f047800000006000000fa00881f7800c7
:100f4000000478003fb99700ea81570080007800dc
:100f500000792000d2020700800078000000e00045
:100f6000020035000040eb0000f47800010078003a
:100f70004f0478000080fa00000006000003b10072
:100f80000b0035009000b100080034008000b10073
:100f9000070035005000b10004003400b001b1007a
:100fa000030035005000b10001003c0010000500b6
:100fb000000005008000eb001001be000000eb0007
:100fc000b8013700889fbe008a9fbe008005780068
:100fd00001057800820478000304780020b98000bd
:100fe0000000e000010032000000010064722100f6
:100ff00088017800090178008a0078000b007800e9
:10100000380207004f05be004f04be000000060076
:1010100001952100c10007000000e0000600350036
:1010200001952100a00020008f0007008000eb0048
:101030000000e00001003d008080eb00010078002e
:1010400000000600889fbe00800478000100780040
:101050000204780089017800110020002d000700ab
:10106000880f5000010032008004eb000900780076
:101070004f04be00000006000000fa004fb99700c0
:10108000e88157000195210020822000840207009a
:101090000080fa000000060080017800000178005e
:1010a000010037000201e8001204e000fdff3a00f1
:1010b000020037000201e8008100e80011407800da
:1010c000004978000004e000faff3a0003007800cd
:1010d000000006008001eb00040037008301e800f7
:1010e00090cf1000040032000000e800828f510011
:1010f000faff3a000000eb0000000600b0de8000be
:101100000000e000010032000000010080bd21006d
:1011100000000600889fbe008a9fbe008c9fbe0014
:101120008e1f78008106780083047800000678001e
:101130000288b900000778000000e00002003a00d1
:1011400000017800420037000d00e000400032004e
:1011500000057800c900900069009000808f500061
:101160000400390009007800060307000000e000d1
:1011700029003500004020001900600003003a00fb
:101180000a047800800578000b0037000a01780017
:10119000a10020000c007800ceff07008005780039
:1011a0000000e00002003a000a0478000200370064
:1011b0000c0050000004e800c90190006900900094
:1011c00003005000880f5000020031000004780036
:1011d0008005eb00080178008c007800030078009f
:1011e000d9fd070008064600080555004900900093
:1011f00000004400c00498000b00e000040032002e
:10120000090078008b0007000000e00002003a00af
:101210000a00e000cfff3a000080200019006000c3
:1012200002003200090078008200070000c02000a0
:10123000190060000200320049009000e0049800ac
:101240000a005700110009000d80d8000001780045
:10125000020078004f0778004f06be004f05be0021
:101260004f04be0000000600889fbe008a1f780061
:10127000800478000104780000457800c1009000e7
:1012800068009000808f500004003900080078004a
:10129000bc0207000000e000150035004800900087
:1012a00009587800400498001800780000b8a3009e
:1012b00004003a0000a8a30006003200ea4f5500df
:1012c00004003a00080078005a0007000000e0001f
:1012d00007003a0000c02000180060000200320041
:1012e00048009000600498000a80fb00010037006d
:1012f0000080eb004f0578004f04be0000000600a0
:101300000000e000030034003e100700e10f400041
:1013100001003a000000eb0000000600889fbe00bc
:101320008a9fbe0000057800810478002d003700f8
:10133000c900900069009000808f500004003900bf
:10134000090078008f0207000000e000350035003a
:10135000004020001900600009003200a1002000b8
:101360000a00780099030700800578000000e0007b
:10137000040032000a0050000004e80004003700b6
:10138000800578000a007800b9fc070000047800a6
:10139000c90190006900900003005000880f5000c0
:1013a00002003100000478008005eb00080178009d
:1013b0008a0078000300780063fd070008054500f7
:1013c0004900900000004400c00498000b00e000b9
:1013d0000400320009007800160007000000e00059
:1013e00010003a001a04e000d1ff3a00008020000b
:1013f0001900600004003200090078000d000700a9
:101400000000e00007003a0000c020001900600062
:101410000500320049009000e00498000000eb0055
:10142000010037000080eb004f05be004f04be00f6
:1014300000000600889fbe00000478000000e00065
:101440000e003a008004780088912100180078008e
:101450000000e00004003200f6ff07000000e0009a
:1014600001003d008084eb000884e80080922100a8
:10147000800f540029003200f4ff370000002200e2
:101480001800600024003200a80490000800370013
:1014900009015000384090000000fb0089007800ee
:1014a00039fc07000000e000130034008084440091
:1014b00048009000808f5400f5ff3900280090000c
:1014c000400498001801780000c02000000061006e
:1014d00002003200a800900001003700b800900020
:1014e00000002400000061000a003200610498003e
:1014f0008004eb00090037002800900040049800a9
:1015000060049800500c98001890a0008084eb00b4
:1015100002003700510c9800800478000900780020
:101520004f04be00000006000800fa00889fbe00bd
:1015300000047800110020002f03070080047800c9
:10154000e10f4000380032000000eb00e18f540052
:10155000350032000900e000070032008000eb0097
:101560000800780024030700080078000900010043
:101570000000eb002c0037006000b8006011b800dc
:10158000a0bf9f00b1bf9f00c2bf9f00d3bf9f00fd
:10159000e30f54001200320005003c00e10f54003c
:1015a0000c003200e20f54001a003a000f0037001e
:1015b000e50f5400100032006004250051042200a1
:1015c000e50f540011003500e60f540011003a00f9
:1015d0000c00370010242400214525000b003700a3
:1015e00090c42400c10422000800370090e42400c5
:1015f00041052200050037003055240071642500a4
:10160000020037004055240021d52400a0bf9f00d0
:10161000b1bf9f00819221006c8057003fff0700ff
:1016200010002000cffc07004f04be000080fa002d
:101630000000060080017800010278000000e00050
:10164000060034000000e9004200200011000900fb
:101650000200d80000017800080037000001eb000c
:10166000e40f400005003c00640010004200200030
:10167000110009000200d8000001e8006380610049
:1016800003003a0081aa21000300e00001003a00b3
:1016900001ac2100040042000100400010004100a4
:1016a000000006000800fa00889fbe008a9fbe0066
:1016b0008c1f7800000678000104780000e82700fd
:1016c000a13a28000201400083814800f2b79f0040
:1016d00083bf9f000c00e00005003a00d0db8000d3
:1016e0008cb621000000e000010032000000010083
:1016f000080e98007fb097008fb8970090bf9f00aa
:10170000a1bf9f0002182500130020001fb89700fa
:10171000afb89700790f07000005be0061004000d8
:10172000e08048007200200003002000860f0700c0
:1017300060069800d2162000030020000a00be00b8
:10174000900f070000047800010037000804e9004a
:101750008000eb0008007800b6ff07006101b900c7
:10176000d016200000c0b90002004000838048006d
:10177000800f5500818f5d00f4ff3500000155009a
:1017800081815d0058069800020378007206980077
:101790006300640003003a0080aa21000800e00012
:1017a00001003a0000ac210076024000c500200094
:1017b0008502e90024007800cf80de00800f510010
:1017c000818f5900faff35004506980014009000fb
:1017d000000053000000e8003006980002182500c1
:1017e000130020001fb89700afb89700530f0700f1
:1017f0000004be0002e12000030020003f0f0700ac
:101800002006980002e12000030020000800be002e
:101810004a0f07000004be00c2032000030020009e
:10182000360f070010069800c203200003002000b6
:101830000800be00410f0700000e78000c08900061
:101840000000e0000c003d000c007800850207005d
:10185000000e98000000e0000700340000e12000c6
:10186000010020007fb197008fb99700020040006f
:1018700083804800a1ff37000c0078004f067800f5
:101880004f05be004f04be000080fa0000000600b5
:1018900020b980000000e0000100320000000100db
:1018a0006072210000000600881f780000047800a4
:1018b00060da80000000e00001003200000001005a
:1018c0006486210088017800a2bd2100a1012000ca
:1018d000e0b4210003000700e0b421004f047800c9
:1018e000000006008f02b000889fbe008a9fbe00e5
:1018f0008c9fbe008e1f780080057800010678005e
:1019000082047800f3b79f0084bf9f000200780034
:1019100057fb0700000578000b0778008006eb00f6
:101920004f0037008d06e9000d804600c2fc2f00f5
:101930000f0141008280e800e1047800e8004100e6
:1019400061057800994078000180fb000000ea0002
:101950004f04de00888444000805550050c2b300df
:1019600080cf500002003a000a00e00009003a006f
:10197000880f560043003900888054000801780021
:101980000b007800f0fb070088854500080656002c
:10199000330037001944780050c4b300804f54001e
:1019a000050032006a404000804f540002003200bf
:1019b0000044eb00010037008904e800a4fd2f007b
:1019c0008f0242006e0252000f02420099417800dd
:1019d000084178008fb897007fb09700a4030700f4
:1019e000800178000804e000010032000a05e900e7
:1019f0008904e8000a05e9006fa197000200e000f1
:101a000009003400820f56001e0039008300780060
:101a10000b007800ccfb07006fa097008085450085
:101a2000000656000e0037000a00e0000a003200ef
:101a3000e28f560008003e000d804600c4fc2f00d7
:101a40000f0242008480e80089307800e8004200fc
:101a50008a3078008d06e8000205ea0083047800e9
:101a60000a00e000b7ff3a000d00e000adff3a00c9
:101a70000c00e000030032008d4d78000e80550010
:101a8000010037000000eb004f0778004f06be0052
:101a90004f05be004f04be008f02b10000000600db
:101aa0006200fa00889fbe008a9fbe000004be004c
:101ab000020578008300780060f92f000f004000d5
:101ac000f300070088979f0099979f000000eb00a4
:101ad000a09f9f009a4578000b80fb000000ea0061
:101ae000cf04de0050c2b30080cf550002003200a8
:101af00009047800010037000904e9000800e0004b
:101b00000b0034001f909700080178008a007800cd
:101b10008f9197000300010090979f000000e00064
:101b2000930032002f98970000004400a09f9f0070
:101b30000905450050c2b30080cf550004003200b3
:101b40000b04e000e3ff3a002f989700890037006c
:101b50000000eb00809f9f00f0979f00e0979f00a0
:101b6000d0979f00c0979f00b0979f00c09f9f0095
:101b70000900370080b821000080500000004000bc
:101b8000c1b72100e10078004f9897000100700074
:101b9000c09f9f000a05e8001a4478008800fb00f7
:101ba00080b821005ffb0700800078000000e000a3
:101bb000f0ff3a00a0c2b300804f54000e003a007c
:101bc000bf8897000180e900b08f9f001000780067
:101bd000b09f9f000000e00005003d000000ea000b
:101be000b09f9f004f9897000020a000c09f9f00cb
:101bf0000a05e80010003700b19f9f0003fd2f0089
:101c0000f4ff2700080037003f989700840f50002a
:101c1000040032006a00b9000000410003004000e7
:101c2000b09f9f000a05e8001a01fb000300410075
:101c3000e90f5000f4ff3600e0c2b3009a4f1000e5
:101c4000040032000080eb00909f9f008a0478001f
:101c50001c0037008a04e800a0c2b300994f1000ae
:101c600007003a00bf8897000180e900b08f9f000d
:101c700010007800909f9f008a84e80011003700d0
:101c80000000eb00909f9f0003fd2f00f4ff270052
:101c9000080037001f989700840f5000040032009e
:101ca0006a00b9000000410003004000909f9f00bf
:101cb0008904e8001901fb0003004100e90f50000e
:101cc000f4ff3600194478008800fb00a0bb210017
:101cd00014fb07000000e00002003a000044780016
:101ce000010037008904e800a87f9f0080c6b30088
:101cf000804f540004003a00994f14000a003a0043
:101d00006640500006003700c0c6b300804f540044
:101d100005003a00994f140003003a006540400066
:101d2000a07f9f008904e8000905e800c8fb2f0098
:101d30000f04440060f92f000f0040008085e80088
:101d40008801780019417800800078000b00780045
:101d5000b60407000000e00005003a0088007800a3
:101d60000b0078004f0007000000e00059ff3d0025
:101d70000080eb004f05be004f04be000080fa005b
:101d800000000600889fbe0000047800c00190009b
:101d9000600090008000eb00808f51003900390016
:101da000180178002000290000006100e20f5000b7
:101db00007003200002020000200e0000100350092
:101dc00000202400000c71008080eb002d00370003
:101dd0000100260001006100810f500008003a0058
:101de00038009000808f510005003900080078000d
:101df00090fd07008080eb000000e00021003a0029
:101e000000c020001800600017003a00a8049000ed
:101e10006002200008004000808f540012003a0049
:101e200000202000fbfa07008000780020049800c2
:101e30000000e00005003a002904980049049800d9
:101e40000900e80030049800060037001860a00080
:101e5000400498000020b00030049800410c980025
:101e6000510c9800ee0507002800900050049800df
:101e7000380090006004980000002600180c7000e4
:101e80008000eb00010078004f04be000000060057
:101e90000200fa00f1bf9f00010878000080fa00fc
:101ea000000006000400fa00889fbe008a9fbe0062
:101eb0008c1f7800000478000106780070089000fc
:101ec000f8009000010050008808900001005000c8
:101ed0009808900001005000a808900001005000f0
:101ee000b808900001005000c8089000810550001b
:101ef0000002220090bf9f0000032300a0bf9f00ac
:101f0000081090000028a30018003a000b00e00021
:101f1000160034008b04780009057800e28f540025
:101f2000020036002a002000020037000900e0000d
:101f30000b00340058009000c80190000a0178009e
:101f4000ee80570003000100500498000000e000fc
:101f5000960032006808900000004500600c980070
:101f60008a8454004240a900ebff3c0078019000b5
:101f70000200e0000b00340058009000c8019000ff
:101f80008c00780003000100500498000000e0007d
:101f90008600320068089000f800900001004000c0
:101fa000600c9800880c90000900e00015003400d7
:101fb00009057800e28f5400020036002a00200054
:101fc000020037000900e0000b00340058009000c8
:101fd000c80190000a017800ec805700030001005e
:101fe000500498000000e000700032006808900083
:101ff00000004500600c98008a8454004240a9000b
:10200000ebff3c00180990000200e0000b003400d8
:10201000e800900058009000c80190000300010003
:10202000500498000000e000600032006808900052
:102030009808900001004000600c9800a80c9000e7
:102040000900e0001500340009057800e28f540013
:10205000020036002a002000020037000900e000dc
:102060000b00340058009000c80190000a0178006d
:10207000ec80570003000100500498000000e000cd
:102080004a0032006808900000004500600c98008b
:102090008a8454004240a900ebff3c0038099000bc
:1020a0000200e0000d003400e800900018089000e5
:1020b0008080400058009000c8019000030001009b
:1020c000500498000000e0003800320068089000da
:1020d000b808900001004000600c9800c80c900007
:1020e0000900e0001500340009057800e28f540073
:1020f000020036002a002000020037000900e0003c
:102100000b00340058009000c80190000a017800cc
:10211000ec80570003000100500498000000e0002c
:10212000220032006808900000004500600c980012
:102130008a8454004240a900ebff3c000810900044
:102140000028a3001b0032000b00e000190034003f
:102150008b04780009057800e28f540002003600f5
:102160002a002000020037000900e0000b003400c4
:1021700058009000c80190000a017800ee805700d6
:1021800003000100500498000000e0000700320046
:102190006808900000004500600c98008a84540094
:1021a0004240a90003003400eaff37000080eb0042
:1021b000010037000000eb004f0678004f05be001d
:1021c0004f04be000080fa00000006008001eb0012
:1021d00010417800814f510001003a0080017800e1
:1021e0000204e000020032000000e800f8ff3700bf
:1021f0000300780000000600810178000000e9007b
:10220000e50f500007003e00e18f4000050032005e
:1022100080004000e0ba21006081780003b07800bf
:10222000010037000081eb0002007800000006008a
:1022300010de800049fa3700881f780088bc210032
:102240001804e00004003a0080112100d5060700c0
:1022500020c0b300004c7800100020004f0478002c
:1022600000000600e6874700889fbe008a9fbe00e8
:102270008c9fbe008e1f78008005780030de8000c5
:102280000000e000010032000000010010df8000cb
:102290000000e000010032000000010020b98000d1
:1022a0000000e000010032000000010061ba80007f
:1022b00020de8000810f50001b0032001104e0007e
:1022c0000e003a0070ba80001004e00002003a00ec
:1022d000c106070070ba88007281570031002000e3
:1022e00070ba80001807070060ba88001004e00088
:1022f000020032000000e90060ba880060ba800085
:1023000043070700000478000085eb000000e000b0
:102310005100320010de800010fa070018de88003d
:1023200060ba800020de88005b0090008000eb0037
:10233000c0fc0700800678007b0090007800b900a0
:102340002b0190000000410080bf9f005b009000c7
:10235000d21620000280b9006169b9000000410076
:102360008180490061004000e08048007200200048
:1023700003002000740c07006e07400018de800088
:10238000e90444000005eb00300037006406440017
:102390005b0190001c80fb00820f500029003c0074
:1023a000b84090008180fb0002007800a1fc07008b
:1023b0000d005000a84090008180fb00810140008a
:1023c000184278000404e0000f0032000e80410043
:1023d0008480fb0001005000720020001100090001
:1023e0000200d8000100e00002003a00010078007d
:1023f000010037006780100080814100e74f5200e4
:1024000001003e00e78151007819b90018409000a2
:102410000080fb00020040008fb89700808f5000c2
:102420000d0035001c467800994f560004003a0014
:102430000a00e00002003a001a0020000100370004
:102440000005eb0065044400e584440000c0eb0097
:10245000984f1000cdff3a000a0078004f0778002f
:102460004f06be004f05be004f04be006f00b10016
:1024700000000600889fbe008a9fbe00800578008d
:102480000104780002057800830478008440780015
:10249000050178000800e00001003d000004eb00a9
:1024a000f0c4b30080cf500006003a002210900024
:1024b0000901780088007800a30607001900e000f1
:1024c0000e003c008a0c78000a8145000049eb00b0
:1024d000a300200006003700110009000304d80003
:1024e0008000fd0004c3b3000461400001047800d3
:1024f0000a05e900f8ff3b00020078004f05be0026
:102500004f04be000000060080805000e7804000bd
:1025100073002000110009008300d8008000fd0036
:102520000001510003014100110009000301d8001e
:1025300000000600889fbe00810478000204780035
:1025400010002000f0ff07000002780080017800f2
:10255000088054003017b0007200200011000900fc
:102560000200d800d016200001004000811f780032
:10257000110009000200d80001017800cf007800a6
:10258000b0162000800f540003003400e20f510009
:1025900004003a0010003700a0162000800f5400fd
:1025a00003003400e30f510004003a000a00370032
:1025b00090162000800f540002003400e40f5100f8
:1025c000050032000180e900e20f500003003e00e8
:1025d0008401e800010037008081eb0003007800ef
:1025e0004f04be0000000600881f78000004780039
:1025f000d0ff07000000e00002003a000804e900f4
:10260000030037000000e00001003c000804e8007f
:10261000080078004f047800000006000200fa006d
:10262000889fbe008a1f780080047800010478002b
:10263000a2002000e880570008007800abf90700ee
:102640000002be004fb99700820f540035003200df
:10265000fac2b300924f150032003a0059009000c0
:10266000c176200001004000cf80de00800f5200c4
:10267000818f5a0004003200840f5000858f58006b
:102680002a003d002b0037000204e800a2002000d1
:10269000e88057000800780094f907000003be00a6
:1026a0004fba9700840f54001e003200944f15005b
:1026b0001c003a00490090000000e8006101b900e8
:1026c000820f5300838f5b0004003200860f51009d
:1026d000878f590015003d00160037000400e80000
:1026e000a2002000e880570080f907000002be0029
:1026f0004fb89700800f54000a0032003900900054
:102700006101b9000000eb00820f5200838f5a0074
:1027100009003200840f5100858f590003003d00ed
:1027200004003700200020000300370010002000c4
:10273000010037000080eb004f0578004f04be0019
:102740000080fa00000006000200fa00889fbe0028
:102750008a9fbe008c1f78008005780001067800f3
:102760000005eb00340037008804e8006c81570056
:102770001100200009007800f305070080007800b0
:102780000b007800a5ff0700000178009840780052
:10279000d0c2b30080cf500004003a000200e8002d
:1027a000e10f500023003e0005003700b0c2b30027
:1027b00080cf50001f003a00e10f51001d003e0085
:1027c0006c8157002100200009007800de05070019
:1027d0000001780010407800984f500004003a0043
:1027e00092409000a0c2b30080cf50001a00320087
:1027f000820078000b00780088ff07000001780055
:1028000098407800d0c2b30080cf500003003a0057
:10281000e10f510007003e000f003700b0c2b300c7
:1028200080cf500003003a000200e800e10f5000a2
:10283000090036000a05e8001c1090006c81570062
:102840008a007800c0050700000478001004e0004a
:10285000c5ff3a0088ad2100080078004f067800d7
:102860004f05be004f04be000080fa0000000600c5
:10287000ea874700889fbe008a9fbe008c9fbe00eb
:102880008e1f780080047800810578000246780069
:1028900004057800050778000300fb00cf80de0008
:1028a0005002b1000180b10052052000820f50009b
:1028b000e08f5800d0013e0000600100ca013700df
:1028c000cd013700cc013700cb013700ca013700fa
:1028d000c9013700c8013700c7013700c6013700fa
:1028e000c5013700c4013700c3013700c2013700fa
:1028f000c1013700c0013700bf013700be013700fa
:10290000bd013700bc013700bb013700ba013700f9
:10291000b9013700b8013700b7013700b6013700f9
:10292000b5013700b4013700b30137003d0037006f
:1029300044003700510037006c003700ae0137000b
:102940007c0037008a00370094003700950037007c
:10295000a9013700a8013700a7013700a1003700ff
:10296000a5013700a4013700a3013700a2013700f9
:10297000b3003700b6003700bf003700c70037008c
:10298000ca003700e7003700f5003700470137007d
:102990008901370098013700970137009601370009
:1029a0009501370094013700930137001900370073
:1029b0007600370028003700440037004f0037000a
:1029c0008d0137005f003700700037008a01370043
:1029d0007a00370088013700870137007e00370012
:1029e00082003700840137008400370082013700fd
:1029f0008a003700800137009b003700a2003700b3
:102a00007d013700c1003700cc003700df00370000
:102a100046013700e9009000818040002b009000c3
:102a200004003700e9009000818040008100e80048
:102a30003b0090000a01780043050700000478007d
:102a400073013700c9009000818040008100e800d8
:102a50006b009000f7ff370050c4b300804f560062
:102a600002003a005b089000010037000b0890005c
:102a70000a0178008000eb00c100370050c4b300a9
:102a8000804f56000a003a008b0078000900780059
:102a90002dff07000000e8000a0178003100200047
:102aa00029050700000478001004e00058013a00ee
:102ab000d900900042062000110009008200d800d1
:102ac0008000fd00f380400001003700b900900055
:102ad0008b0278000c4278008a01780022002000e6
:102ae0000e00780063fe0700d4ff370080ff2f0040
:102af000000a7800b8ad210045013700b900900008
:102b00008b0278000c4278008a01780022002000b5
:102b10000e00780057fe07000004780000c3b300e1
:102b20009e4f10003a013a0070405000004f78006c
:102b30003701370080ff2f00000a780048ae2100df
:102b40003301370079019000e900900059009000ae
:102b5000a5fe070042062000110009000200d8006f
:102b60000100e000daff3d0082804000d8ff37001e
:102b700079019000e9009000590090009afe07004a
:102b8000c176200081004000db003700c9009000c2
:102b9000818040005b009000a6ff3700a9009000f4
:102ba000cbff3700290090006b004000c2002000de
:102bb000110009000200d80008003700f900900059
:102bc0008100e8008b0278000c4278008a017800ce
:102bd00032002000c2ff3700c90090008100e800e9
:102be000bbff370099009000b9ff370010002000ac
:102bf000000a7800d8ae2100050137008000eb0004
:102c000029009000eb0f500001003400110020005b
:102c10000a0178001b00780087ff370050c4b3001a
:102c2000804f560002003a000b1090000100370060
:102c30003b0890000a017800310020005000370066
:102c4000b0ff2f00000a7800f8ae2100f000370036
:102c50008b0278000c4278008a0178002200200064
:102c6000990078009eff370010002000000a7800cd
:102c700058af2100e600370080ff2f00000a7800df
:102c800078af2100e2003700e90090000100e00089
:102c90001f003a00710020001d00370079019000ec
:102ca000e90090000000eb0021003700f9069000d9
:102cb00069049000d90490000d0178008800780024
:102cc000090078001bfe07000000e00006003a0043
:102cd0008d005400e78040000900e900d216200072
:102ce00014fe0700030037000000e00001003c0074
:102cf000100020008b0278000c4278008a017800d6
:102d0000220020008000780075ff3700e900900065
:102d10008b0278000c4278008a01780012002000b3
:102d20006fff370079019000e9009000100020004b
:102d3000f5fd07008000780065ff370050c4b30040
:102d4000804f560002003a006b08900001003700e7
:102d50001b0890000a0178001100200008003700cd
:102d600050c4b300804f560002003a007b08900028
:102d7000010037002b0890000a0178002100200094
:102d800071040700000478006600370059009000c5
:102d900042062000110009000200d800e1b79f00a0
:102da0000100e00002003d0082804000e1b79f008a
:102db00050c4b300804f560035003a008b007800b5
:102dc0000900780060fe0700800678000081e800b6
:102dd00082bf9f001204e0002d00320059049000d1
:102de000c076200000044400cfc4de008d01e8005e
:102df000f3b79f000a01780011002000030078005b
:102e000051040700a20020008000eb00b7f7070084
:102e10000004540081845c00d0c2b3009d4f1000b8
:102e200002003a0060041400e0841c00a2002000ac
:102e3000f68057000fb89700acf707000800400075
:102e4000898048005fb197008fb99700828f510049
:102e50000f00320012417800ffb19700934f5100ec
:102e60000b003a00e0b79f00180020000100370077
:102e70000804e800a200200003002000c1090700a8
:102e8000e00f5000e08f5800f9ff3c0001003700d0
:102e9000280020008b0278000c4278008a0178001c
:102ea00008017800efb097000dff370050c4b30061
:102eb000804f56000d003a008b0078000900780022
:102ec00021fe07000000e8000a0178004100200010
:102ed0001d04070000047800b0c3b300984f100031
:102ee000020032001a00e00008003a00d900900009
:102ef000c0762000808040008b0278000c42780071
:102f00008a01780042002000f5fe3700b10320005e
:102f10000800780083f607000000e000010032009e
:102f2000080d50001a0dea00390037004b109000d0
:102f30001004e00001003a00a70307000a0178002e
:102f40002100200000040700000478001a00e000bf
:102f50002f003400090890000000e0002c0034002d
:102f6000a20020008000eb00080078005ff7070057
:102f7000410620008080400003003300b0c2b3004f
:102f8000004f780003003700d0c2b300004f780034
:102f90008100ea000e00e8008b0278000c42780005
:102fa0008a0178004200200032fd07000004e90099
:102fb0001a0de800160037000004eb000908900025
:102fc0000000e00001003400180020004b109000c9
:102fd0001004e00001003a007f0307000a017800b6
:102fe0008800780094fe370010002000000a780066
:102ff00008b0210006003700034f78000040eb00c6
:10300000104798000e04780020002000000d780082
:10301000080078004f0778004f06be004f05be003d
:103020004f04be00af00b10000000600889fbe0044
:103030008a1f78000004780001027800824478003a
:103040000305780070c6b300804f510021003c009a
:1030500000c0e900804f5100de003d00724050008a
:10306000804f51004b0132000d003c006c4050007d
:10307000804f51005e013c0000c0e900804f5100cc
:10308000d4003d0050c2b300804f510055013200c2
:103090007c404000804f510055013a00cd00370080
:1030a00010c6b300804f5100ca00320004003c003b
:1030b00069405000804f51004d013a0072003700c6
:1030c00030c6b300804f5100180032000040e800c5
:1030d0000900370000c7b300804f51001e013200c5
:1030e00008003c0000c0e900804f5100e4003200bd
:1030f00065003c006540500080cf54003c013a0020
:103100000f00370050c7b300804f51005e003200ff
:1031100063404000804f51005b003200654050002a
:10312000804f510032013a001a0137009180e900c6
:10313000010a780078009000917178003201370020
:10314000a8609000c0c6b30080cf50000a003a00cb
:103150009400780064805000000a78001000be00df
:103160004f89de00cf91de000002be00020378002e
:10317000820378001300370010c7b30080cf5000df
:1031800003003200a0c6b30080cf500006003a0012
:103190009400780068805000000a78003002be0079
:1031a0002003be00070037001480e900000a780001
:1031b0001000780000027800cfa2de00050378003e
:1031c00086037800049cbe000694be00a8609000b0
:1031d00080c6b30080cf50000e00320020c6b3007e
:1031e00080cf500005003a000400fb00cf80de00d5
:1031f00001017800820178000a00370040c7b3005f
:1032000080cf5000030032006640400080cf500065
:1032100006003a0004007800cf80de00010178004b
:1032200082017800009cbe000294be003800be00ff
:103230002801be00e00f5000e08f5800e00f590059
:10324000e08f590003003d0078009000d1c2b30028
:103250000a003700081090000018a3000300320095
:1032600078009000b1c2b300040037000008a3004a
:10327000530032007800900001c2b300017578005d
:103280000000e8004d003700a8609000c0c6b30001
:1032900080cf500006003a0094007800648050000f
:1032a000000a78001002be006033b8001300370037
:1032b00010c7b30080cf500003003200a0c6b30097
:1032c00080cf500006003a009400780068805000db
:1032d000000a78003002be002003be00070037005d
:1032e0001480e900000a78001000780000027800dd
:1032f000050020000600200007002000049cbe00fe
:103300000694be00a860900080c6b30080cf500035
:103310000e00320020c6b30080cf500005003a00f6
:103320000480fb00010020000200200003002000b8
:103330000a00370040c7b30080cf500003003200be
:103340006640400080cf500006003a00040078003c
:10335000010020000200200003002000009cbe00ad
:103360000294be00081090000038a3001400320040
:103370003800be002801be00e00f5000e08f58006a
:10338000e00f5900e08f59000d00320080c7b300f4
:1033900080cf54000300320080c5b30080cf5400ba
:1033a00007003a007800900001c3b300017578006f
:1033b0008000e80009f578000080e80070049800bb
:1033c0007800900000004500600498008940780073
:1033d0006d003700a8609000c0c4b30080cf5000db
:1033e00006003a009400780068805000000a7800d7
:1033f0005001be004000be00050037009400780078
:1034000064805000000a78001000be00c709070061
:10341000009cbe000294be00380090000000e00056
:1034200003003d0078009000d1c2b3000a003700cd
:10343000081090000018a3000300320078009000ec
:10344000b1c2b300040037000008a3000500320039
:103450007800900001c2b300017578000000e80018
:103460007004980078009000000045006004980007
:103470008940780008007800620307006400370084
:10348000a8609000c0c6b30080cf50002500320075
:103490000a003c006440500080cf500028003200f9
:1034a00000c0e80080cf5000140032006840500097
:1034b00080cf500022003a000a00370040c7b30016
:1034c00080cf50001e0032006640400080cf500088
:1034d0001b0032006940500080cf500018003a00b5
:1034e000060037001480e900000a78001000780018
:1034f000485c900008487800450037001480e900d7
:10350000000a78001002780068089000cf80de0082
:103510000101780082017800009abe000292be008c
:103520003b0037001480e900000a780010017800a1
:1035300068089000cf80de000089be0034003700ac
:103540001480e900000a780010007800680c9000f0
:10355000080878002e0037001180e9008008780004
:1035600010007800cf80de00010178008201780031
:10357000009cbe000294be00780090000000450050
:103580006004980081c7b300080078007c00070041
:103590001f0037001480e900000a7800100078004e
:1035a00060049800580990000200e00002003d000d
:1035b0002ff40700090037008000eb00c5f6070074
:1035c000800078000000e0000300320068009000f6
:1035d000008050000100370058089000100c98003f
:1035e0000b00370078009000027578000600370065
:1035f00078009000800045000904e00001003a00d6
:1036000059c2b300894878000000e80070049800af
:103610000000eb004f0578004f04be0000000600dc
:10362000881f780048be21001804e00004003a001a
:1036300080ba2100db01070020c0b300004c7800f5
:103640004f04780000000600889fbe000004780048
:1036500078f707008004780000042000180060005c
:1036600002003200280090003cf507000000eb004b
:1036700020049800384090000004e0000500350068
:103680000000fb00750707000000e00001003200a9
:103690008084eb00181090000000e0000800320069
:1036a000770707000000e000010032008084eb0093
:1036b0001810900029f507000000eb001014980086
:1036c0000008200018006000100032000000eb002d
:1036d00081912100910f1400070032000000e800e2
:1036e0008180e800e80f5000faff3a0008007800f7
:1036f0001af5070013003700000140008000eb00be
:103700008091210001307900f8ff3700000c78002b
:1037100000c0eb0030449800600220000800400028
:10372000200498004004980050049800400c980031
:1037300060049800500c98007004980076004400d3
:10374000000c9800090078004f04be00000006003d
:10375000881f780068922100180078000000e000bf
:1037600001003200b8ff07000884e90060912100e1
:10377000800f5400f8ff3a004f0478000000060064
:103780002f03b000889fbe008a9fbe008c9fbe00a2
:103790008e1f780000077800b0b32100c0b79f00eb
:1037a00080c5b30080cf500008003200a2b22100d3
:1037b000c2b79f007740400080cf500003003a001e
:1037c00083002000b3b79f000a00370080c7b30012
:1037d00080cf500005003200a4002000b4b79f0045
:1037e00080c5b30080cf500002003a0005012000e0
:1037f000b5b79f003e04be002e05be0040c6b30014
:1038000080cf5000030032006540400080cf500060
:103810000b003a00e00f5400e08f5c00e00f5d0009
:10382000e08f5d0006003d006000b8006011b80048
:1038300008045000898458000a0559008b855900f6
:10384000bfb39700e88f530003003200f08f53009e
:1038500045003a0002003700360020000100370022
:1038600046002000e00f5400e08f5c00e00f5d0098
:10387000e08f5d0005003a005e08900081012000a5
:10388000a1b79f000000e000080032003fb19700a0
:103890000200e90008006000cfb1970063407800a3
:1038a00090df9f0074012000a4b79f00860278007b
:1038b0008502e900050033008b05d1000a85d3009d
:1038c0008984d3000884d300f9ff3700089fbe0025
:1038d0000a97be00afb397000700e90021fc2f0054
:1038e0008f804000008240003fb197008202e900d3
:1038f00012003700afb397008703e900a7b79f0016
:1039000000806200cfb09700615278003e00be0098
:103910002e01be00860378008703e900050033000e
:103920008381d1000281d3008180d3000080d30045
:10393000f9ff3700009fbe000297be003e00be00a8
:103940002e01be00e00f5000e08f5800e00f59003c
:10395000e08f5900d6003400afb397000700e000b5
:10396000e4ff3c00d2003700ae60900080c6b30098
:1039700080cf50000b00320006003c000104e00044
:10398000080032006640500080cf500073003a00bb
:1039900004003700c0c6b30080cf50006f003a006b
:1039a00031003700080178000800e00005003a0007
:1039b0005e08900081012000a1b79f000000e00098
:1039c00009003200bfb19700110009000381d8003f
:1039d0008000fd004fb297006440780090df9f00a8
:1039e00075012000a5b79f00bfb397001100090023
:1039f0000781d80080017800afb097000100e9008e
:103a000022fc2f000f014100000241000c00370092
:103a1000bfb29700110009008501d80000017800ad
:103a2000afb397008703e900a7b79f000590b900df
:103a300000805100cfb09700615278008201780079
:103a40000300e000030034002fb197000200e00003
:103a5000efff3c0003007800cf80de00010178001a
:103a6000820178003a0037000806be00e00f5400db
:103a7000e08f5c0005003a005e08900083012000a2
:103a8000a3b79f000000e000090032003fb297009a
:103a90006121b9000c00be00a8060700cfb2970054
:103aa0006540780090df9f0077012000a7b79f0056
:103ab0003fb297006121b9000c00be008f060700dd
:103ac0000006be00afb297000500e90027fc2f00fa
:103ad0008f8343008083430097b79f001100370016
:103ae0003fb197006114b9000801be000c00be0090
:103af000a40607000005be00afb197008301e900ee
:103b0000a3b79f000801be0076060700000056001c
:103b10001fb29700cfb297006552780094b79f000c
:103b20000a06be00e00f5600e08f5e00030034007e
:103b3000afb397000700e000e9ff3c004feade006a
:103b4000cfa2de000c00be000401780084017800e2
:103b5000009fbe000297be0055003700e00f5400e2
:103b6000e08f5c00e00f5d00e08f5d0005003a0033
:103b70005e08900081012000a1b79f000000e000d6
:103b80000d0032003fb1970002027800cfa2de00a4
:103b900005037800860378000800be000a01be0015
:103ba000360707004fb297006440780090df9f000f
:103bb00075012000a5b79f003fb197000202780071
:103bc000cfa2de0005037800860378000800be005f
:103bd0000a01be0022070700009fbe000297be0038
:103be000afb197000300e90024fc2f000f02420050
:103bf0000006420020003700bfb29700050478009d
:103c0000cfc4de00090578008a0578000802be00ee
:103c10000a03be005fa89700efa897007fa997004e
:103c20008fb1970019070700d0b79f00e1b79f0039
:103c3000f2b79f0083bf9f00afb397008703e900ef
:103c4000a7b79f000802be000a03be005c0607007b
:103c50005faa970000005200cfb297006556780027
:103c60005fb09700efb097007fb197008fb99700d2
:103c7000009fbe000297be003e00be002e01be00a7
:103c8000d0af9f00e1af9f00f2af9f0083b79f00ce
:103c9000e00f5000e08f5800e00f5900e08f59000e
:103ca00003003400afb097000100e000d2ff3c00f9
:103cb0003fb19700e80f510013003a000e1090003a
:103cc0000038a30010003200afb19700f78f510009
:103cd00006003e0024fc2f000f0242008300420039
:103ce00000c3b300914f100007003200afb297003d
:103cf0008502e900a5b79f0000c3b30027fc2f0091
:103d00008f83430080f37a00afb197007881110070
:103d1000120f98006e00900024fc2f000f0242004a
:103d20008300420008f307001e0990005e0890001f
:103d3000800f510006003d0002005000000f980067
:103d40000e1090000040a100001798000f003700ef
:103d50000000e0000d003d000e10900074006000b7
:103d6000f00f500009003a007e089000fe0090001d
:103d7000010050008e089000010050000200500029
:103d80004240a90001003400000f98004f0778005e
:103d90004f06be004f05be004f04be002f03b1000a
:103da0000000060000017800204b20000000e00029
:103db0000800320050de80000000e0000500320004
:103dc0000000e90050de88000000400061de800055
:103dd00002b0780000000600889fbe008a1f7800ad
:103de00000be21001004e00053003a0020ba210078
:103df000ac050700f0de88000000e00046003a0055
:103e0000b0ba2100a7050700f0de88000000e0003e
:103e100041003200000478001ab92100984478006b
:103e20000900fb001af407000000e000380032002f
:103e3000094d78000801780032407800404598002c
:103e40000a05e80040b92100800f55000200320049
:103e500002047800f1ff370092407800d0c2b3002e
:103e600080cf50000500320000c0e90080cf500034
:103e70000200320080407800010037000881e8002d
:103e800090b9210001487800924078000100fb00c1
:103e900003fd2f0003004000e90f50001c003e000e
:103ea000a0b9210001487800924090000100fb0079
:103eb00003004000e90f500015003e00b0b921009a
:103ec000014878000284e8001800fb00f0f30700c6
:103ed0000000e0000b0032005ab92100984478003d
:103ee0000900fb00eaf307000000e00008003200d0
:103ef000095d78000804e80080b92100800f5500b2
:103f0000f6ff3a0000b921001804e0000100320079
:103f10000000eb00f0de8800f0de80000000e00032
:103f200002003a0070dc8000f0de880021c0b3009f
:103f300000be210001487800f0de80004f057800c7
:103f40004f04be0000000600889fbe008a9fbe008e
:103f50000004be0082057800104578000a04e000e5
:103f6000010032000004e8008a00fb00080078002d
:103f70006cf207000000e00003003a00080078003f
:103f8000bbf10700000044000900e00002003c0013
:103f9000880d5000080037001004e00003003a00cc
:103fa000800deb0000047800030037008904e9006d
:103fb0000004e800ecff3700080078004f05be0061
:103fc0004f04be0000000600800178000101780067
:103fd0008000eb00040037006a08b90000004200ce
:103fe000850040008301e8000201e900060033007b
:103ff0001302fb0005fd2f0005004200e90f5000f1
:10400000f5ff36008080eb0001007800000006001c
:10401000e8874700889fbe008a9fbe008c9fbe0035
:104020008e1f780030477800800478000e04e0008e
:104030006c0032002a002000020037000800e8006f
:104040000a05e8008e00fb0036f207000004780045
:104050000000e000f9ff3a006550b9006df207007a
:1040600080bf9f00800578000000e0005d00320006
:104070000006e80000057800e8b79f0080c2b300a2
:10408000994f10000c003a000900e80041002000a0
:10409000cdff070041892f0001004000e0b79f00dd
:1040a00048003300d940900090c2b30080cf500048
:1040b00044003a00e68444004fe89700e0ef9f0098
:1040c000404598002100200009007800beff07004d
:1040d000e3064500804ee9000980e8002100200049
:1040e000b9ff07000a84e800004ce900648144003d
:1040f0001200fb000003b100e90f500006003e0073
:104100002100200002007800afff0700004e780079
:104110006681440001003700004eeb00b0c0b300e0
:104120009d4f100027003e0030c6b300984f10008e
:1041300024003e009c4f100022003e009240780078
:10414000b0c2b30080cf50000500320000c0e800cc
:1041500080cf500002003200004deb00100037000d
:104160009241900000cdb30000c24100e64f5200e2
:1041700014003e0071c0b30000c3b30080cf5100f3
:104180000100320084407800014d7800b0c2b300d5
:10419000924f100001003a0067cd40000281e80014
:1041a000124078000004e000090032006506460075
:1041b0008e4f500003003a00650545008204e80078
:1041c000aeff37000fb8970064f207000500370014
:1041d0006500450000c8eb00efe8970041409800fb
:1041e000010037008005eb000b0078004f077800d6
:1041f0004f06be004f05be004f04be008f00b10049
:10420000000006008f04b000889fbe008a9fbe0099
:104210008c9fbe008e1f7800f0b79f0081f79f0033
:104220005001be004000be00f0979f00819f9f009c
:10423000929f9f00a39f9f0010c6b3000ff19700ad
:10424000804f51001600320010c4b300804f51005f
:1042500013003200ffb19700530890000000e00007
:1042600003003d0060002000d00998000c003700da
:104270000000e0000a003a0070c6b3000ff2970099
:10428000804f52000300320070c4b300804f5200d0
:1042900003003a0010002000ffb29700d00a9800f7
:1042a000ffb09700c0fa2f000f004000fe0107008a
:1042b00080017800e20f500015003a003000200025
:1042c000ffb097009008980010c6b3000ff1970058
:1042d000804f51000a00320064404000804f51007e
:1042e000070032000040e800804f51000400320017
:1042f00061a721000040e800804f510001003a0012
:10430000a1a72100ffb197006300900016003700bd
:104310000000e00018003400300020007fb2970059
:10432000100a980010c6b3008ff2970080cf520099
:104330000a0032006440400080cf52000700320083
:104340000040e80080cf520004003200e1a72100c5
:104350000040e80080cf520001003a0021a821006f
:104360007fb1970062009000315878003158780092
:1043700011487800c601370014c6b3008ff29700c9
:1043800084cf52000300320010c4b30080cf52002b
:1043900013003a007fb0970060019000820078001f
:1043a00000c3b30080587800ffb29700e102980084
:1043b00080c7b3008ff2970084cf52000100320013
:1043c00080c5b300804878000280e800ffb0970005
:1043d000e0009800710090000080e800f000980074
:1043e0000300e00005003a00e3979f0064fb2f0004
:1043f0000f01420003077800a001370065a82100e3
:10440000e5b79f0010c6b3008ff0970080cf500033
:104410000500320010c4b30080cf5000a7003a005e
:1044200072a92100e2b79f00ffb1970053089000e6
:104430001e0220000000e000010035000007e80037
:104440000e02e800d4b79f006022b8006033b800c5
:104450007f9097008f9897001f999700af999700ca
:10446000d1050700ffb097003102be002103be0056
:104470000000e00004003d000400be000601be0094
:1044800003f0a200020037000400be000601be00d7
:10449000f0979f00819f9f00929f9f00a39f9f0086
:1044a0006f91970064015100e2979f00c3fa2f00bb
:1044b0008f8141006a8041000048eb006b8241001f
:1044c000c4b79f0031003700c20120000300200064
:1044d000e5fa2f000f8042009f0107007f949700ac
:1044e0008f9c97001f9d9700af9d97000800be000e
:1044f0000a01be00b10507000006be005fb19700cb
:1045000067015100d2b79f004240a9000a00340061
:10451000d60507000002be000203be000800be0070
:104520000a01be00d4050700f0979f00819f9f00fd
:10453000929f9f00a39f9f00cfb19700678041008b
:1045400071002000050037006f6066004c6add00d6
:104550004466de000c067200c4eede00e00f56007a
:10456000e08f5e00050034008100e900e18f40002b
:10457000f5ff3a00010037000060eb008100e90020
:10458000fdff3b0067004000c0b79f00dfb297000f
:104590000500e000090034006022b8006033b80074
:1045a0007f9097008f9897001f999700af99970079
:1045b000b30507000000e000c3ff3c0060fb2f00d4
:1045c0008f0040004fb19700010051000000e9004a
:1045d0008e0f500001003d00000778000e00e00043
:1045e00003003d0073fb2f000f8141002c003700ba
:1045f000800f570005003d000e80400010409000e5
:10460000f3c0b300e74f500001003c008041eb00d5
:10461000c4fa2f000f0242000e0042006a00400060
:104620008e007800010037000000e9008100e900f9
:1046300010417800834f5100fbff32000107e80072
:10464000efcf510001003a000248e8000100e0000d
:104650000300350075fb2f000f8142000600370074
:104660000e07e8006f90970064004000e0979f00fd
:1046700061fb2f000f8140008e0041008e01780009
:10468000030037001100fb006fb29700e448780088
:104690008301e9008100e9000300e000f9ff3d002b
:1046a000ffb29700550890000000e000f3003d00c5
:1046b0000e00e900d00a9800f00037007f949700c0
:1046c0008f9c97001f9d9700af9d97006022b800b8
:1046d0006033b8000800be000a01be0032050700c2
:1046e0000000e00005003d000bf0a200f8979f00dd
:1046f000899f9f009a9f9f00ab9f9f006f9097009c
:10470000725927000280b900026a280013002000b5
:104710009c030700e4005000e1979f0015003b0058
:10472000e3801000c0ff2f00008460000800ea0052
:10473000e0979f007f9097008f9897001f999700b0
:10474000af999700a99e2100070037000808a30031
:10475000030032003902be002903be004d050700e8
:104760000884d100e88444000800e000f7ff3c0022
:104770001b0037000100e0001d003400c0ff2f00c7
:1047800000806000e0979f00000478006000b8009f
:104790000200200003ff2300a99e2100070037002c
:1047a0000808a300030032003902be002903be003e
:1047b000380507000884d100e88444000800e000c0
:1047c000f7ff3c000002be000203be007f9097008e
:1047d0008f9897001f999700af999700a20507003f
:1047e000f0979f00819f9f00929f9f00a39f9f0033
:1047f000ffb097005109900060c6b3008ff1970099
:1048000080cf5100040032006100200060c4b3007a
:1048100080cf510002003a006f929700ea004200f8
:1048200001074100f30f5700010034003e01200052
:1048300000c3b300e0779f0075fb2f008f8242001a
:10484000b5b79f00330037000800be000a01be0064
:10485000da0407000006be00680757004240a900be
:104860000e003400010507000002be000203be0076
:104870000800be000a01be00ff0407006022b80065
:1048800046782d007719240002050700f0979f0055
:10489000819f9f00929f9f00a39f9f003fb0970022
:1048a00068044000890020000d003700a4002000ab
:1048b000050020000c01be00e0fd2f000f004000ad
:1048c000200107007fa897008fb097001fb19700c5
:1048d000afb1970004c3b300046441000006be00fa
:1048e000e00f5600e08f5e00060034008904e90006
:1048f000e18f4400edff3a000200370000c3b3002f
:10490000006478008904e900fcff3b00680444006f
:10491000b8b79f000e00e0000b0034007f949700b2
:104920008f9c97001f9d9700af9d97006022b80055
:104930006033b8000800be000a01be00d0040700c2
:104940000000e000c0ff3c00c5fa2f008f8242004b
:104950006a804200bfb09700008050008001e900eb
:104960006f919700e70041006b81420000c3b300e4
:10497000010037000201e800924f1000fdff3200f5
:1049800074fb2f000f0042008080400082805000a6
:104990000080410002025000e1979f00ffb29700a3
:1049a000d509900060c6b3008ff2970080cf520007
:1049b0000300320060c4b30080cf520002003a000e
:1049c0008100e8000a00370050c6b3008ff097005e
:1049d00080cf5000050032008000eb0050c4b300cf
:1049e0008ff2970080cf520001003a0011002000a2
:1049f000018741008e0f520001003d00040778003e
:104a00000e00e0001d003500840f570005003d003a
:104a1000e2407f0095c3b30040c3b30080cf500095
:104a200001003c0005c3b3000e0041008000e90016
:104a30008e017800010037008100e9008301e90060
:104a400011427800854f5200fbff32000307e80057
:104a500090c3b30080cf520001003a008448e800c0
:104a60000300e00005003d000201e9000e07e80038
:104a70006f9097000000e800e0979f006f9297000a
:104a80008e0178008ff097007fb09700ca00070072
:104a90004f0778004f06be004f05be004f04be0012
:104aa0008f04b10000000600889fbe0080047800db
:104ab0006684400000ff2700180060004401de000b
:104ac000f07f2000800f51000e003a00800ceb00b8
:104ad000180478006f0064001c003a002100900068
:104ae0000000e00019003a00110090000000e00012
:104af00016003a00100020001100e00014003200ff
:104b0000120037000200e00005003c0001007800c0
:104b1000dd010700000178000000e00008003c0013
:104b2000f00028001800600001fe2300010c700056
:104b300020c02f00800c41000080eb0004003700f3
:104b4000800ceb000000eb0001003700200020008b
:104b50004f04be0000000600889fbe008a1f780038
:104b60008c9fbe00000478000206be00e6044000f0
:104b7000190178000200d0004505de008a007800a7
:104b8000f07f2000800f55000c003a006f0061009c
:104b900067003a00280090000000e00064003a003e
:104ba000180090000000e00061003a0010002000b2
:104bb0001800e0005f0032005d0037000a00e000ee
:104bc00007003a0008007800af0107008000780075
:104bd0000000e000020034000a00780055003700b1
:104be0006108b9000c0140008d814800e07f200081
:104bf000800f5100e08f59000d0034001900e000d3
:104c000004003d006000b8000200200003ff2f00f8
:104c1000030037006000b8000200200003ff2700f7
:104c2000009cbe000294be0010002000410037002e
:104c3000e00f5100e08f590005003400f00028001b
:104c400019006000c410dd00810c700036003700d0
:104c50001900780001002800010360006f00600067
:104c60000040a000800c780061015100e0815900f3
:104c7000c0fc2f00f1ff2f00800f5100818f5900e1
:104c800006003d00860c78000000eb002004980030
:104c900010049800000c780026003700020078000d
:104ca0000881e800e400440005003700120c780099
:104cb0001109780099087800800ceb007000400022
:104cc000f00f4000f9ff34008002ea0015003200c6
:104cd0008881e80070821200980078008508de0064
:104ce000130078000400dd00008c700064014400b3
:104cf000930078008508de00120078000400dd00d3
:104d000080897000920078008508de001900780024
:104d10000400dd0000897000190078000500de0045
:104d2000800c7800990c73000080eb0001003700c4
:104d3000200020004f06be004f0578004f04be0043
:104d4000000006000400fa00889fbe008a9fbe0093
:104d50008c1f78000006780092bf9f00a3bf9f00c1
:104d60000404be000401be001fb89700afb897004e
:104d7000040207000005be000001be000800be00de
:104d8000d80107001fb99700afb997000000510084
:104d90008180590020069800310698000a8ebe00d6
:104da0000c0078004f0678004f05be004f04be008f
:104db0000080fa00000006000e00fa00889fbe0086
:104dc0008a9fbe008c9fbe000004780001457800d9
:104dd0000206780083047800840678000300e0006f
:104de00002003c00190020008cbe210060c6b30008
:104df000804f55000e00320060c4b300804f550054
:104e00000b00320070c6b300804f55000300320023
:104e100070c4b300804f55009c003a00e48f4600f8
:104e20008000350058089000808f56007d003d00be
:104e30008d05e80060c6b300804f550010003200b9
:104e400060c4b300804f55000d0032000810900080
:104e50000038a30004003a0058089000808f5400e6
:104e600001003d00590c9800580890000b005000bc
:104e7000500c980002003b000000eb00500c980022
:104e80000b00e00027003c0018099000680090002b
:104e900001c3b300017079008201e800130c98008f
:104ea000580890000000e00003003c00081090004b
:104eb0000038a3000500320068009000e1c2b30092
:104ec00001f079000280e800100c9800d8089000ea
:104ed0000b00ea00808f500001003d008105ea00d0
:104ee0000b00ea00200c980001804500500c98004f
:104ef000890f500001003d0080047800390c9800b3
:104f000068009000980890000100400009017800b6
:104f10008c0078008cee07005808900009005000c3
:104f20001a00370098089000680090008b8f54009a
:104f300018003d0001004000090178008c00780055
:104f400081ee07001808900000814400120c9800c0
:104f500009805500200c9800580890000000e000df
:104f600003003c00081090000038a3000600320047
:104f7000e8009000e0c2b30080707900380890002b
:104f80000000e800300c980058089000400c980091
:104f9000a6003700010040000b0178008c0078006b
:104fa00069ee07001808900000814500120c980077
:104fb0008b845400580890000000e00003003c007f
:104fc000081090000038a30005003200680090002f
:104fd000e1c2b300017079000200e800100c9800f3
:104fe00058089000890f500001003d0080047800af
:104ff0006800900098089000010040008b00460077
:105000000901780050ee0700180890000080440065
:10501000100c98005808900009005000200c9800cf
:105020008200370070c6b300804f55000300320085
:1050300070c4b300804f550014003a005808900027
:10504000808f540004003d00081090000038a30039
:1050500001003a00590c9800580890000000e9003f
:10506000500c980002003b000000eb00500c980030
:1050700070c6b300804f550002003a005ac6b30014
:105080000b0037005ac4b3000900370010c6b30044
:10509000804f550002003a000ac7b30004003700f1
:1050a00010c4b300804f550001003a000ac5b30098
:1050b00018099000680090003c7079008201e800b7
:1050c000130c98000c027800580890000000e000d3
:1050d00003003c00081090000038a30017003200c5
:1050e000e8009000e0c2b30080f079008280e80020
:1050f000110c9800580890000000e0000f003400e8
:105100008904e900890f500001003d008004780007
:105110006800900000804000090178008400780059
:1051200009ee07001808900000804400100c980059
:105130005808900009005000200c9800680090006a
:1051400098089000010040000086e8000a587800a6
:10515000800078000d00e00004003500b0c2b3000c
:10516000804878008c04780004003700d0c2b30077
:10517000804878008c0478008d06ea008005eb00fa
:105180000a003700a20020008d00780070805700d0
:10519000890007000fb897009fb897007a815500e3
:1051a00001f17f008b05e800800678000d00e0002b
:1051b000f4ff3c00e18f550009003c0050c6b300ed
:1051c000804f55000300320050c4b300804f55009b
:1051d00003003a0000c3b300005e78008c0478003e
:1051e0000b00e000040032000b00e900fa805700d9
:1051f000008040000600370000c3b300805c7800e8
:10520000050037008b05e90002c3b300a05c410034
:105210000b00e000fbff3c00680090009808900045
:105220000100400000805400300c980008109000ed
:1052300074006000f00f50000e003a0078009000fb
:105240009808900001004000a8089000010040006c
:10525000b808900001004000c8089000810040009c
:1052600078089000808f500002003d00010050003f
:10527000000c98004f06be004f05be004f04be0054
:105280000080fa000000060000017800e6014000fe
:105290001300780001002800810360006f006000a7
:1052a0008009780012003a00220090000000e0001f
:1052b0000f003a00120090000000e0000c003a00dd
:1052c000160020001200e00038003200080037000d
:1052d000e4004100910978000280e800900878001d
:1052e000120878000009eb0070035300010037003a
:1052f000160020001300e000f5ff3200e402410038
:105300000282e8001100370080004000150078009c
:105310004f00de0080897000950078008180400099
:10532000140078004f00de00808a7000940078003e
:1053300081804000120078004f00de00008a70007b
:1053400012007800000940000603e900130078000d
:10535000ef0f5000ecff36008282e800640241004b
:105360000e0037009200d100150078004f00dd00dc
:10537000008970009500d100140078004f00dd0016
:10538000808a70009400d100130078004f00dd0087
:10539000008a70009309d1000603e800130078002a
:1053a000ff0f5000efff3e00ef096000938973008c
:1053b000060078000000060002027800809fbe0010
:1053c000110009008200d800000178004f00be00e3
:1053d00002a2b900848050001100980002087800f1
:1053e000000006002002e20004003d002342ab0062
:1053f000020032002302ab00feff32000040da0060
:10540000feff3700889fbe008004780060df8000c8
:105410000000e00003003a00230007000000e00065
:105420000a00350060df80000900e00002003a0059
:1054300000047800060037000004780009004000ee
:10544000190007000000e00001003d000084eb00af
:10545000080078004f04be00000006000a00fa00b1
:1054600011002000b1bf9f00c0bf9f006a8057009d
:1054700000c0da004fb897000080fa000000060074
:105480000a00fa0051002000b1bf9f00c0bf9f007a
:105490006a80570000c0da005fb897000080fa0009
:1054a0000000060000000500800078000000e00019
:1054b00004003a00e0be210060df880001017800ae
:1054c000060037000081eb00a0f82200808f50001a
:1054d00002003e0061df88000001eb00020078005e
:1054e00000000600020ab900001bb9000200b80063
:1054f0008100420081004300000006006022b800e5
:10550000060220000000d0008180d2000482d20078
:105510008582d2000000a0000202520083825a005d
:10552000030031000202420083824a000000a10011
:105530000603e900f3ff3a0000000600efff070052
:105540000400be0000000600811f78000100e0009a
:1055500002003d0060001000e08018000300e00041
:1055600002003d0060011100e0811900f3ff070017
:105570004f00e00002003b0060001000e0801800d7
:1055800000000600839f68000100e00002003d006b
:1055900060001000e08018000300e00002003d0001
:1055a00060011100e0811900d4ff07004f00e00006
:1055b00002003b0060001000e080180000000600c0
:1055c000889fbe008a9fbe008c1f78000205be0027
:1055d0000004be000006eb00e00f5000e08f580012
:1055e000e00f5900e08f590007003d006000b8004f
:1055f0006011b80008045000898458000a05590059
:105600008b8559001c002000e00f5200e08f5a00eb
:10561000e00f5b00e08f5b0002003d000f00070021
:105620000c00a2000800be000a01be001d01070018
:105630000203be000002be000c00e00001003200c8
:10564000060007000400be000601be004f067800f9
:105650004f05be004f04be00000006006000b80009
:105660006011b800040250008582580006035900fa
:105670008783590000000600881f78000004780026
:105680005001be004000be0004004000858048007c
:105690000601490087814900009cbe000294be00bb
:1056a0000400e1000588e1000690e1000798e100b0
:1056b00002003100680044001008e8004f04780040
:1056c00000000600f4874700889fbe008a9fbe0046
:1056d0008c9fbe008e1f78000205be000004be0035
:1056e000d4b79f00e5b79f00f6b79f0087bf9f0024
:1056f0000000eb00c0b79f00b0b79f00a0b79f00ad
:1057000090b79f0080b79f000d042000bfb09700a6
:105710004fb09700000140000000e0000f003d0086
:105720004f08de0000007100c0b79f009e00070018
:1057300001003d0012002000a100070001003d0013
:1057400012002000a6000700b1000700b600070005
:105750000f004000c8ff0700220037004f08de009e
:1057600000067100ccb79f008f00070001003d00cc
:10577000120020009200070001003d0012002000ee
:1057800097000700a20007000fb297009fb2970092
:105790002fb39700bfb39700a90007000000520085
:1057a00081805a0002015b0083815b0080b79f000b
:1057b00091b79f00a2b79f00b3b79f000007eb000f
:1057c0009f0007000020e10001a8e10002b0e10015
:1057d00003b8e100010031001e0020000e00560059
:1057e000c0b79f004fb297000400e00007003500eb
:1057f00010002000010020006011b80008047000b3
:10580000898470000a0571008b8571008d06e9009e
:10581000beff3a000400e00003003d0082000700e4
:105820000f00400094ff07004fa897000000e00021
:1058300004003a000fb497009fb497002fb597006b
:10584000bfb59700940007004f0778004f06be00d1
:105850004f05be004f04be004f01b100000006001e
:10586000881f780018002000881f780095ff070027
:105870008f87e9004f04780000000600801feb00ce
:1058800090ff07008f87e90000000600889fbe0098
:105890008a9fbe008c1f78006e00070007003d0045
:1058a00073000700e00f5b00e08f5b0007003d0026
:1058b000320007000006eb00040037003400070048
:1058c00002003d002a0007001c00200072000700b3
:1058d000e3ff07000203be000002be000c00e00070
:1058e00001003200220007000400be000601be00d5
:1058f0004f0678004f05be004f04be0000000600b2
:10590000889fbe008a9fbe008c1f78005100070050
:1059100005003d0056000700e00f5b00e08f5b00d4
:1059200006003d00040037001900070003003d0099
:105930006000b8006011b8001000070056000700b2
:10594000ceff07000203be000002be000c00e00014
:1059500001003200060007000400be000601be0080
:105960004f0678004f05be004f04be000000060041
:105970006000b8006011b800000037000402500059
:1059800085825800060359008783590000000600ed
:105990000006eb00e00f5200e08f5a00e00f5b00c2
:1059a000e08f5b00000006000180400090b79f0080
:1059b0000001eb008fb097000100e000000006003e
:1059c0000200700090b79f000180400080b79f00e8
:1059d0000001eb00ffa897000100e00000000600b6
:1059e0000200700080b79f00018040006faa9700fe
:1059f000cf20de0001007000f0af9f0004024200e3
:105a0000250007004f18de000002720000000600ab
:105a1000e4af9f000804440089844c000a054d004f
:105a20008b854d00000006003fb29700cfb2970073
:105a30005fb39700efb3970000fe2f000000060051
:105a40003fb09700cfb097005fb19700efb19700dc
:105a5000000006000205be000004be00e00f50007a
:105a6000e08f5800e00f5900e08f59000000060059
:105a70006000b8006011b800080450008984580024
:105a80000a0559008b8559001c002000e00f5200c8
:105a9000e08f5a00000006000800be000a01be00a8
:105aa00000000600889fbe008a9fbe008c9fbe003b
:105ab0000404b8000506b8008904460060854e005d
:105ac0000606b8000a054600e0854e000706b80045
:105ad0008b054600040eb800890446000a854e0076
:105ae000e0854d00050eb8000a0546008b854e0086
:105af000060eb8008b0546000416b8000a054600dd
:105b00008b854e000516b8008b054600041eb800b4
:105b10008b0546000800be000a01be004f06be000d
:105b20004f05be004f04be00000006008103780050
:105b3000270107000001be006000b8000478a30040
:105b400013003a006220e10015003e000d0039000c
:105b50008301d1000281d3008180d3008301d10071
:105b60000281d3008180d3008301d1000281d30060
:105b70008180d3000538b000c42add00f300b200f4
:105b80008381720007f0a70003f0a0000000060068
:105b9000f3ff2700f2ff2f006110b900fbff370071
:105ba00003ff2700f7ff37008f1fd1001d010700fb
:105bb0008f87e9000000e000000006001400fa00f2
:105bc000889fbe008a9fbe008c9fbe000004be005e
:105bd0000205be00680047000a90be000890be00a3
:105be000390107000070a7000bf0a100304320002e
:105bf0009e02900080825200b0fe2f000028e1003b
:105c000011003d00b0fc2f000028e1001500340019
:105c10001e0990008e0890007e0090000501b000e3
:105c20000201d1008180d3000080d3008502e8000a
:105c3000fbff3a000b00e0005e013b00600010003b
:105c4000e08018005b013700f0ff2f00f1ff270014
:105c50000b00e00057013b0001002800000020007d
:105c6000540137006000b800520137004f89de0050
:105c7000820178005401370007f0a2008901370043
:105c8000809feb00e70007008f87e9000000e0003d
:105c9000000006002800fa00889fbe008a9fbe0010
:105ca0008c9fbe0003866b002e0107000028a30016
:105cb00064003a000128a30067003a000008a3002e
:105cc00062003a000108a30065003a001e0090003f
:105cd000be08900081064000ed3fb100f4805700ff
:105ce000ee019000111ab8008e099000311bb80027
:105cf0009e099000311cb800511db800f485570072
:105d000046000700fe0190003a0007008b85e8007e
:105d10003e0007008e09900040000700ee01900051
:105d2000340007008b85e800380007008e099000da
:105d3000400007009e0990001b18b800890440002d
:105d40000a854800fe019000340007008b85e800ba
:105d500038000700ee019000300007008e09900027
:105d60001b18b800890440000a8548000a98a3005f
:105d700008003a000402420085824a0006034b00f4
:105d800087834b0008044c0089844c000a054d00b1
:105d90008d06e90084827200850273004c3add00b2
:105da000850272000100320015002000443ade0036
:105db0001400b2004538de00cb45dd000b0070005a
:105dc000c540de00cb4ddd008b8070004549de0014
:105dd000cb55dd000b017100c551de000d037800cd
:105de000ad01070003f0a1000cf0a70003f0a00034
:105df000f00037001b18b8008502400006834800f9
:105e0000e0834b0060044c00070037001b18b8000b
:105e10000603400087834800faff37001b18b800cc
:105e20008703400008844800e0844c0060054d0072
:105e3000000006001b18b8000804400089844800d0
:105e4000faff37000108a300d7003a005800be004f
:105e50005801be00e3ff37000008a300d2003a005b
:105e600009047800f9ff37002800fa00889fbe0077
:105e70008a9fbe008c9fbe0003866b00b90007009e
:105e80006400e100440032006408e1004a0032008e
:105e90006100e100460032006108e1004900320083
:105ea000ec0647006000b8003d02be003d03be00a6
:105eb000f48657006011b8003d04be003d05be00e9
:105ec0007d0320000b0037000000a0008d06e900d4
