:020000002D28A9
:10000800803120007F08F5000B1C0B280C282728BE
:100018002700931C102811282228F708031D1528EB
:100028001628222880312F208031F40074082000FF
:10003800AE00F7010314F70D222822282700931099
:100048000B10292827282728292875082000FF00B1
:10005800090088013229F20120008C18342835283B
:100068006928F30108307302031C3B283C283E280A
:100078005C285C283E30F000F00B4028640000301B
:1000880020008C180130F000730A4B28F035890BDA
:100098004A287008F1007108F2040130F000700875
:1000A800F30708307302031C5A285B283E285C2893
:1000B8003E30F000F00B5E2864003E30F000F00B9C
:1000C8006328640072086B286B28FF306B280800CF
:1000D8002000A00022000C103E30F600F60B72281B
:1000E80064002000A1010314A10DA108031D7D28AF
:1000F8007E28802899289928200821050319852811
:100108008628892822000C148C2822000C108C28A0
:100118003E30F600F60B8E28640003102000A10D77
:10012800A108031D98289928802822000C143E3025
:10013800F600F60B9D286400080021000E1022002E
:100148000E14813121218031813114218031103008
:100158002000A9003930A8001B30A700A70BB2283F
:10016800A80BB228A90BB228B9288B172000AD011B
:10017800AA01AB01AC0101308031D42080312200CA
:100188000E10C6287708031DCA28C62820002E0886
:1001980081312B218031F701C628C628C6282D2891
:1001A8002000A5007030A3002308A400E02826083A
:1001B80081312B218031E02801302000A507FF3054
:1001C800250781310A008031A3002308A600A6086C
:0C01D800031DEF28F028DB28F1280800A8
:1002000000340D340A34533469347334743465342F
:100210006D346134203449346E3469346334693464
:10022000613464346F34003422008C0123008C016B
:100230008B152700921421008C140C1022000C1432
:100240000800222921001A1E2629272922292829C7
:100250006A30990008002000A200220880316C203A
:0C02600081310800F701AE012000A12848
:020000040001F9
:02000E0084FF6D
:00000001FF
