:100000002D28003449340034803120007F08F50069
:100010000B1C0B280C2827282700931C10281128BC
:100020002228F608031D15281628222882310122CD
:100030008031F40074082000B400F6010314F60DBA
:1000400022282228270093100B1029282728272848
:10005000292875082000FF0009008801C52A9F286B
:10006000B001AE01AF017608031D372840283408DF
:10007000A4002408AE00F601B6010314B60DAB28A7
:100080000430AD28AD287608031D472851283408D0
:10009000A4002408AF00F6010230A4002408B60032
:1000A000AB284E3032022030031931020318592890
:1000B0005A285F280130B1070030B23DAB28B101AA
:1000C000B201B6013708303A031D672868286D2849
:1000D00045308231EF2280316D280230AD28AD28C5
:1000E000AB28AB288F28742801302000A4002408F6
:1000F000B000B6010130AD28AD28AF01AE01B601A8
:100100003708303A031D852886288B2845308231F0
:10011000EF2280318B280230AD28AD2898282000AE
:100120002E08613A031974280D3A031974287D28A2
:100130002000AE01AF01B001B601AB28AB28200012
:100140003608003A03193028013A03194328033AC4
:1001500003198F2898280030AD2808002000A70137
:10016000B508031DB428B528D02880312F20803150
:100170002000A6002608A7002708013A031DC12871
:10018000C228CB28B5010314B50DA001013081317F
:10019000BD218031CB2820002708262926292429A3
:1001A0003508013A031DD528D628242912291229F9
:1001B0002F088131752180312000A6002608A70074
:1001C000B308031DE428E5281B293708303A031D2E
:1001D000EA28EB281B2927088231EF2280311B29CE
:1001E0001B291B291B291B291B292000A0010314E3
:1001F000A00D2F088131BD2180312000A6002608E6
:10020000A700A708031D052906290B29FF30823105
:10021000EF2280311B2945308231EF2280311B29AA
:100220001B291B2920002E08613A0319D8280D3AF2
:100230000319F5281B292000B501A00100308131E8
:10024000BD218031242924290430262908002000DA
:10025000AB01AC01AD0121008E1222008E16F60119
:100260002000B4018231E52281318231D6228131F0
:100270008231B022813102302000AA000430A9006E
:10028000BA30A800A80B4229A90B4229AA0B42297F
:1002900064008B17023082317822813122008E1265
:1002A00051298031AE2081312000A8002808AB0000
:1002B0002B08043A031D5D295E2951294E302D0279
:1002C000203003192C020318662967296C29013094
:1002D000AC070030AD3D5129AC01AD016300000019
:1002E00051295129512951292D282000A300B3015A
:1002F00097290830A2002208A500A8290C30A200E6
:100300002208A500A8291030A2002208A500A829CB
:100310001430A2002208A500A8297430A2002208E7
:10032000A500A829B3010314B30DA829A8292308FF
:10033000323A03197929013A03197E29073A031938
:100340008329013A03198829033A03198D2992292F
:10035000B308031DAC29AD29B629250882319622A0
:1003600081312000A2002208A400BA29FF30A20097
:100370002208A4002408BC2908002000A1002008AD
:10038000013A031DC429C529E929D629D629C82936
:10039000F7010314F70D22008E16E529F70122005C
:1003A0008E12E5290130002A002AE52920002108C3
:1003B000003A0319CE29013A0319C829313A031921
:1003C000CE29013A0319C829D2290030002A002A6F
:1003D000FE292000A008031DEE29EF29FE29F708B9
:1003E000031DF329F429FE292118F729FA292200EF
:1003F0008E16FC2922008E12FE29FE290030002ACA
:100400000800F20120008C18062A072A3B2AF30173
:1004100008307302031C0D2A0E2A102A2E2A2E2AB7
:100420003E30F000F00B122A6400003020008C18DF
:100430000130F000730A1D2AF035890B1C2A700860
:10044000F1007108F2040130F0007008F307083081
:100450007302031C2C2A2D2A102A2E2A3E30F0006B
:10046000F00B302A64003E30F000F00B352A6400B7
:1004700072083D2A3D2AFF303D2A08002000A100D5
:100480008B1322000C103E302000A000A00B462A47
:1004900064002000A2010314A20DA208031D512A2A
:1004A000522A542A6E2A6E2A210822050319592A33
:1004B0005A2A5D2A22000C14602A22000C10602A9D
:1004C0003E302000A000A00B632A6400031020002F
:1004D000A20DA208031D6D2A6E2A542A22000C14B4
:1004E0003E302000A000A00B732A64008B17080088
:1004F0002000A6007030A4002408A500842A270844
:100500008231EF228231842A01302000A607FF3099
:10051000260780310A008231A4002408A700A7081A
:10052000031D932A942A7F2A952A08002000A100FF
:10053000C330A000200821009D05200021083C397F
:10054000A000200821009D04A52A21009D14A82AAE
:100550009D18AB2AAC2AA82AAD2A1C08AF2A08008D
:1005600021000C150C1623000C150C1621000E147E
:100570008E140E158E1523000E148E140E158E1566
:1005800021001D1440309E000800F601F701AE0165
:10059000AF01B001B101B201B301B401B501B601BF
:1005A0008231F6228231B7002000272921008C14E5
:1005B0000C1022000C108C1023000C108C108B15CA
:1005C0002700921422000C140800E62A21001A1EAB
:1005D000EA2AEB2AE62AEC2A6A3099000800200071
:0E05E000A300230882313E228231080030340D
:020000040001F9
:02000E0084FF6D
:00000001FF
