:020000002D28A9
:10000800803120007F08F5000B1C0B280C282728BE
:100018002700931C102811282228F708031D1528EB
:1000280016282228863162268031F40074082000C0
:10003800D100F7010314F70D222822282700931076
:100048000B10292827282728292875082000FF00B1
:06005800090088011F2FC2
:100200000034013400340A34003464340034E834F7
:1002100003341034273445346E347434723461340A
:100220006E3464346F3420346E346F3420346D3463
:100230006F3464346F34203473346C346534653413
:10024000703400340D340D345534613472347434E8
:100250002034503472346F346334653473347334FF
:1002600061346E3464346F3400340D340A346134D4
:1002700064346334203469346E34643469347334E0
:1002800070346F346E346934763465346C340034D1
:100290000D340A3455344134523454345F345334B9
:1002A000553443344534533453344F3400340D34CF
:1002B0000A344134443443342034763461346C3469
:1002C0006F34723420342534643400340D340A34ED
:1002D000443445344234553447345F345034523416
:1002E00049344E34543400342A3445345234523470
:1002F0004F342034543449344D3445344F3455341C
:10030000543400344C3465346434203464346534FB
:1003100073346C3469346734613464346F3400345A
:100320000D340A34443445344234553447345F3450
:100330004E3441344434413400340D340A344434AE
:1003400045344234553447345F345434553444349E
:100350004F3400340D340A3455344134523454345B
:100360005F344C34493456345234453400340D34FF
:100370000A34553461347234743420346C34693442
:1003800076347234653400340D340A3444344534E0
:100390004234553447345F344C34453444340034AB
:1003A0000D340A3455344134523454345F344534B6
:1003B000523452344F3400340D340A3455346134DD
:1003C0007234743420346534723472346F340034CF
:1003D0004C346534643420346C34693467346134AB
:1003E00064346F340034633461346E3461346C349B
:1003F0003A3400346E34753463346C3465346F349D
:1004000000344134523447343F343F3400340D34E7
:100410000A34003449340034323400343334003484
:1004200034340034353400342F302000B10031082A
:10043000B400DD2A3B08253A03191F2A202A252A61
:100440003B0887314B278231DD2AB501302AF52A56
:10045000492A492A3B0887314B278231DD2A492A1C
:1004600020002E08B2002D08B1000130AD0703189E
:10047000AE0A31088400320885000008BB00003A4B
:100480000319F52A643A0319492A0D3A0319492A2E
:100490002A2A2000340886008701403FB700413FE8
:1004A000B8000230B1003108B407B81F582A592AE1
:1004B000632A0330B1003108B504B709B809B70A97
:1004C0000319B80A632ABB010314BB0D3B08053AA4
:1004D000031D6B2A6C2A6E2A912A912A3B08090770
:1004E000013E840081300318013E8500003FB100C9
:1004F000013FB20032083802031D802A310837025A
:100500000318832A842A862A912A912A0130B1006D
:100510003108BB073B08053A031D8F2A902A6E2A33
:10052000912A350803390319962A972A9C2A2D30D7
:1005300087314B2782319C2A20003B08B1003108CB
:10054000B600D02A0A30A7000030A80036080907F4
:10055000013E840081300318013E8500003FA00069
:10056000013FA1003808A301A3073708A201A20791
:1005700085319825823120002108AA01AA07200888
:10058000A901A90786312326823120002708303EA1
:10059000B1003108BB003B0887314B278231D02A9C
:1005A000FF302000B1003108B6073608FF3A031DBE
:1005B000DA2ADB2AA22ADD2ADD2A20002E08B20050
:1005C0002D08B1000130AD070318AE0A31088400D0
:1005D000320885000008B3003308BB00BB08031DC8
:1005E000F22AF32A1A2AF52AF52A08002000C40163
:1005F000D508031DFC2AFD2A182B84315B24823187
:100600002000C3004308C4004408013A031D092B1D
:100610000A2B132BD5010314D50DBE0101308531F2
:1006200045258231132B20004408C32BC32BC12B3B
:100630005508013A031D1D2B1E2BC12BAD2BAD2BD5
:100640004C088331C42382312000C3004308C40016
:10065000D008031D2C2B2D2BB82B5708303A031D27
:10066000322B332BB82B440887314B278231B82BE0
:10067000B82BB82BB82BB82BB82B2000BE01031415
:10068000BE0D4C088531452582312000C30043084A
:10069000C400C408031D4D2B4E2B532BFF30873154
:1006A0004B278231B82B453087314B278231B82B0D
:1006B000B82B9C2B30302000C3004308D70090306B
:1006C000AD008130AE00823114228231B82B33303C
:1006D0002000C3004308D7009D30AD008130AE003C
:1006E000823114228231B82B32302000C3004308FB
:1006F000D700C430AD008130AE0082311422823187
:10070000B82B31302000C3004308D7006630AD005D
:100710008130AE00823114228231B82B01302000AA
:10072000BC008230BD008631D626823130302000B8
:10073000C3004308D700B82B20004C08303A0319F7
:100740005A2B013A0319812B033A0319742B013AEE
:100750000319672B8E2BB82BB82B4B08613A031962
:10076000202B053A03199C2B083A03193D2BB82B73
:100770002000D501BE010030853145258231C12BD5
:10078000C12B0430C32B08002000C000D001F3307F
:10079000BC008130BD008631D62683311D2C0C3043
:1007A0002000BC008230BD008631D626833108305F
:1007B0002000BE003E08C1002F2C0E30BC0082304D
:1007C000BD008631D62683310C302000BE003E08A5
:1007D000C1002F2C1030BC008230BD008631D626DF
:1007E000833110302000BE003E08C1002F2C123093
:1007F000BC008230BD008631D62683311430200003
:10080000BE003E08C1002F2CFA30BC008130BD0074
:100810008631D626833174302000BE003E08C100E8
:100820002F2CD0010314D00D3530BC008130BD0019
:100830008631D62683312F2C2F2C20004008323AC7
:100840000319CF2B013A0319DD2B073A0319EA2BC1
:10085000013A0319F72B033A0319042C112C200039
:10086000D008031D342C352C3E2C41088631F0264F
:1008700083312000BE003E08C200422CFF30BE0083
:100880003E08C2005708313A031D472C482C572C0C
:100890005730AD008130AE004208BE00BF013E08B7
:1008A000AF003F08B000823114228331572C200062
:1008B00042085A2C0800D72CCD01CB01CC01770877
:1008C000031D632C6C2C5108BE003E08CB00F701C1
:1008D000D6010314D60DE32C0430E52CE52C770863
:1008E000031D732C7D2C5108BE003E08CC00F7017F
:1008F0000230BE003E08D600E32C4E304F022030BE
:1009000003194E020318852C862C8B2C0130CE0740
:100910000030CF3DE32CCE01CF01D6015708303A4D
:10092000031D932C942C992C453087314B2784310F
:10093000992C74302000BC008130BD008631D62651
:1009400084310230E52CE52CE32CE32CC42CA92CBB
:10095000A92C01302000BE003E08CD00D601013098
:10096000E52CE52CCC01CB01D6015708303A031D0C
:10097000BA2CBB2CC02C453087314B278431C02C7E
:100980000230E52CE52CD02C20004B08613A0319ED
:10099000A92C053A0319A92C083A0319A92CB22C41
:1009A0002000CB01CC01CD01D601E32CE32C2000AB
:1009B0005608003A03195C2C013A03196F2C033ACC
:1009C0000319C42CD02C0030E52C08002000CA01EB
:1009D000C801C90121008E1222008E16F7012000E5
:1009E000D1018731412784318731322784318731E2
:1009F0000A27843102302000C7000430C600BA3014
:100A0000C500C50B012DC60B012DC70B012D6400C0
:100A10008B170A302000AD008230AE0082311422E4
:100A2000843122008E12142D8231F622843120006E
:100A3000C5004508CA004A088531DF2584312000F9
:100A40004A08043A031D252D262D142D4E30490247
:100A500020300319480203182E2D2F2D342D01307C
:100A6000C8070030C93D142D0B30BC008130BD00DB
:100A70008631D62684312000C801C90163000000F8
:100A8000142D142D142D142D2D282000BF003E08E8
:100A9000013A031D4C2D4D2D802D6D2D6D2D502DAA
:100AA000D2010314D20DE830BC008130BD00863184
:100AB000D626853122008E167C2D2000D201823070
:100AC000BC008130BD008631D626853122008E12D1
:100AD0007C2D0130972D972D7C2D20003F08003A6A
:100AE00003195D2D013A0319502D313A03195D2D7B
:100AF000013A0319502D692D0030972D972D952D12
:100B00002000BE08031D852D862D952DD208031DBE
:100B10008A2D8B2D952D3F188E2D912D22008E160E
:100B2000932D22008E12952D952D0030972D0800C3
:100B30002000A401A501210820040319A02DA12D46
:100B4000D72DA6010314A60DAF2D0130A035A10DA0
:100B5000890BA62D0130F6007608A607AF2DA11F40
:100B6000B22DB32DA52DB52DB52D0130A435A50D74
:100B7000890BB62D21082302031DC02D2008220257
:100B8000031CC32DC42DCA2D2008A2022108A33B9B
:100B90002414CA2D0130A136A00C890BCB2D0130B5
:100BA000A602031DD42DD52DB52DD72DD72D250863
:100BB000A101A1072408A001A007DE2D0800200044
:100BC000BD005708313A0319E62DE72DEE2D5708E1
:100BD000333A031DEC2DED2D222EEE2D3D0854064B
:100BE0000319F32DF42D222E3D08BC003C08D4003F
:100BF000142EAA30AD008130AE008231142285312E
:100C0000222ED0302000AD008130AE00823114227F
:100C10008531222E48302000AD008130AE00823177
:100C200014228531222E222E20003D08013A03197C
:100C30000A2E033A0319012E063A0319F92D222E22
:100C4000222E222E08002000280827040319292E0E
:100C50002A2E5A2EAC010314AC0D382E0130A735C4
:100C6000A80D890B2F2E0130AB002B08AC07382EB6
:100C7000A81F3B2E3C2E2E2E3E2E3E2E28082A024A
:100C8000031D442E27082902031C472E482E4D2EF3
:100C90002708A9022808AA3B4D2E0130A836A70C28
:100CA000890B4E2E0130AC02031D572E582E3E2EBE
:100CB0005A2E5A2E2A08A801A8072908A701A70713
:100CC000612E0800F20120008C18672E682E9C2EE1
:100CD000F30108307302031C6E2E6F2E712E8F2EBF
:100CE0008F2E3E30F000F00B732E64000030200099
:100CF0008C180130F000730A7E2EF035890B7D2EA2
:100D00007008F1007108F2040130F0007008F30778
:100D100008307302031C8D2E8E2E712E8F2E3E30C6
:100D2000F000F00B912E64003E30F000F00B962E98
:100D3000640072089E2E9E2EFF309E2E080020001A
:100D4000A0008B1322000C103E30F600F60BA62EEE
:100D500064002000A1010314A10DA108031DB12E00
:100D6000B22EB42ECD2ECD2E200821050319B92E7A
:100D7000BA2EBD2E22000C14C02E22000C10C02E44
:100D80003E30F600F60BC22E640003102000A10DC9
:100D9000A108031DCC2ECD2EB42E22000C143E3003
:100DA000F600F60BD12E64008B17080020005708C0
:100DB000313A031DDC2EDD2EEF2E0730AD008230E0
:100DC000AE0082311422863120003D08AE01AE070C
:100DD0003C08AD01AD07823114228631EF2E0800A8
:100DE0002000A000C330F600760821009D052000F9
:100DF00020083C39F600760821009D04FF2E2100D2
:100E00009D14022F9D18052F062F022F072F1C0857
:100E1000092F080021000C150C1623000C150C16C8
:100E200021000E148E140E158E1523000E148E1430
:100E30000E158E1521001D1440309E000800F7018C
:100E4000CB01CC01CD01CE01CF01D001D101D20126
:100E5000D301D401D501D601873152278731D7007C
:100E60002000E62C21008C140C1022000C108C1099
:100E700023000C108C108B152700921422000C14E8
:100E80000800422F21001A1E462F472F422F482FBD
:100E90006A30990008002000A200220886319F26AF
:060EA00087310800303428
:020000040001F9
:02000E0084FF6D
:00000001FF
