:060000000A128A11122809
:10000800FE00030EF5000408F6000A08F700831244
:1000180003137F08F8000A128A11A02B0A128A1506
:100028000E2F523083120313D6005608DB00262AFF
:100038006108253A031921282228292861080A126B
:100048008A15D7260A128A11262A83120313DF017A
:10005800E001D9013928392859150130D00703188A
:10006800D10A0030D107392848285108FF00500824
:1000780084000A128A1100240A128A11303A0319DC
:1000880030284828482839285108FF00500884009B
:100098000A128A1100240A128A110A128A153327B1
:1000A8000A128A11031C59285A281129831203138A
:1000B800DF01E0015F28831203136008C901C90743
:1000C8005F08C801C8070A30CA000030CB000A120E
:1000D8008A11CF270A128A11831203135108FF00CD
:1000E800500884000A128A1100240A128A1148074B
:1000F800D6000030031801304907D7005608D03E13
:10010800DF0057080318013EFF3EE0000130D0072A
:100118000318D10A0030D1075108FF0050088400A5
:100128000A128A1100240A128A110A128A15332720
:100138000A128A110318A128A2285F281129112957
:100148001129432A2F298312031360085E02031D15
:10015800AF285F085D020318B228B328BA285D08E3
:10016800DF025E08031CE003E002C528DF01E001AE
:10017800C528C52820300A128A15D7260A128A11DE
:10018800C528FF3083120313DF070318E00AFF3086
:10019800E007FF306006031DD328FF305F06031D0C
:1001A800D628D728BE28E928E9285C0884008313C4
:1001B80000080A128A15D7260A128A1101308312FA
:1001C8000313D6005608DC07E9280130DD020030A9
:1001D800031CDE03DE02FF305E06031DF528FF3038
:1001E8005D06031DF828F928D928262A262A5B083F
:1001F800840083130008D6005608E1000230D600B8
:100208005608DB0707296130D6005608DC000130A4
:10021800DD000030DE00A7282F29831203135108C0
:10022800D7005008D6000130D0070318D10A570864
:10023800FF00560884000A128A1100240A128A1143
:10024800E100003A0319432A633A0319FB281B3AD1
:1002580003192F290729831203135B0884008313CA
:100268000008DC00840A0008DD000230D6005608C9
:10027800DB07E1010314E10D6108043A031D452978
:1002880046294829742974296108D6005607123E60
:10029800840084300318013EFF000A128A110024EA
:1002A8000A128A11D7000A128A1100240A128A1126
:1002B800D80058085D02031D632957085C0203181B
:1002C800662967296929742974290130D6005608D6
:1002D800E1076108043A031D722973294829742922
:1002E8006108D600D701D61BD7035708803AD80033
:1002F8006008803A5802031D83295F0856020318D4
:10030800862987299529831203136108D600D70106
:10031800D61BD7035608DF025708031CE003E00288
:100328009A2983120313DF01E0019A29591D9D2997
:100338009E29BC2960085F040319A329A429DA2986
:10034800A52930300A128A15D7260A128A11FF30D9
:1003580083120313DF070318E00AFF30E007600881
:100368005F04031DB829B929A529DA29DA29DA2968
:1003780060085F040319C129C229DA29C32920307A
:100388000A128A15D7260A128A11FF30831203131C
:10039800DF070318E00AFF30E00760085F04031D69
:1003A800D629D729C329DA29DA29DA296108D60012
:1003B8005608DA00182A5A08D6005607123E840052
:1003C80084300318013EFF000A128A1100240A1221
:1003D8008A11C8000A128A1100240A128A11C90057
:1003E8005D08CB01CB075C08CA01CA070A128A114B
:1003F800EF260A128A118312031348080F396B3E3D
:10040800840084300318013EFF000A128A11002478
:100418000A128A11D7005708E10061080A128A15E2
:10042800D7260A128A11182AFF3083120313D6001E
:100438005608DA075A08FF3A031D232A242ADF2917
:10044800262A262A831203135108D7005008D600FB
:100458000130D0070318D10A5708FF005608840056
:100468000A128A1100240A128A11D8005808E100D9
:10047800E108031D402A412A1C28432A432A080070
:10048800682BC70100300A128A112D260A128A1118
:100498009F2B403083120313E5006508C7004030E6
:1004A8000A128A112D260A128A119F2B10308312E4
:1004B8000313E5006508C70010300A128A112D26BB
:1004C8000A128A119F2B503083120313E500650826
:1004D800C70050300A128A112D260A128A119F2B42
:1004E8009E3083120313CC008430CD00CE010A1253
:1004F8008A1592270A128A119E3083120313CC00A0
:100508008430CD004030E5006508CE000A128A1517
:1005180092270A128A119E3083120313CC0084306A
:10052800CD001030E5006508CE000A128A15922722
:100538000A128A119E3083120313CC008430CD0036
:100548005030E5006508CE000A128A1592270A1273
:100558008A119F2B123083120313E5006508C60029
:1005680047080A128A112D260A128A119F2B831214
:10057800031334086C3A031DC22AC32AC52A081477
:100588009F2B08109F2B9F2B34086C3A031DCD2AF4
:10059800CE2AD02A88149F2B88109F2B9F2B340893
:1005A8006C3A031DD82AD92ADB2A08159F2B081173
:1005B8009F2B9F2B34086C3A031DE32AE42AE62A72
:1005C80088159F2B88119F2B9F2B34086C3A031D8D
:1005D800EE2AEF2AF12A08169F2B08129F2B9F2B31
:1005E80034086C3A031DF92AFA2AFC2A88169F2B2C
:1005F80088129F2B9F2B34086C3A031D042B052B64
:10060800072B08179F2B08139F2B9F2B34086C3A36
:10061800031D0F2B102B122B88179F2B88139F2B32
:100628009F2B2014A0142015A01520169F2B2010F6
:10063800A0102011A0119F2B8D30CF008430D00046
:100648001030E5006508D100200CE600E60C660CC9
:100658000139E700E8016708D2006808D3000A12E8
:100668008A156A270A128A118312031320129F2BF4
:10067800201E3F2B402B492B1A30D0008430D1004C
:100688000A128A1115200A128A11CB308312031319
:10069800CF008430D0001030E5006508D100200C70
:1006A800E600E60C660C0139E700E8016708D200AD
:1006B8006808D3000A128A156A270A128A11831257
:1006C8000313C6019F2B9F2B831203133308613A30
:1006D8000319452A033A03194D2A013A03195A2ADC
:1006E800073A0319672A013A0319742A033A0319C6
:1006F800AE2A0E3A0319152B013A03191B2B033A9C
:100708000319202B183A0319BB2A013A0319C82ADE
:10071800073A0319D32A013A0319DE2A033A0319BF
:10072800E92A013A0319F42A0F3A0319FF2A013A70
:1007380003190A2B3C2B08008C1EA32BA42BB02BCF
:100748001A08F4007408FA007919AB2BAC2BAE2BFD
:100758007915AF2B79148C120B1CB32BB42BC82B27
:10076800861AB72BB82BC62B791ABB2BBC2BC62BDA
:100778000A128A1187270A128A11F4007408FB00EA
:100788007916C62B0B10C82B0B1DCB2BCC2BCE2BC5
:100798000B11CE2B780883120313FF0077088A0009
:1007A80076088400750E8300FE0E7E0E0900831203
:1007B8000313CA004230C800C80BE02B6400831240
:1007C80003134A08C80004300310C80CFF3E031D79
:1007D800E82B0F304805C9000608F039490486009F
:1007E800061606120F304A05C8000608F0394804F4
:1007F8008600061606120800FF1B0A2C83137F18B2
:1008080083170008840A0319FF0A08007F087F3944
:100818008A000408840A0319FF0A8200013400349C
:100828001034003400340134003410340D340A34E8
:100838006E3465346E34683475346D342034633402
:100848006F346D3461346E3464346F3420347634EC
:1008580061346C34693464346F34203465346E34F4
:1008680063346F346E3474347234613464346F3486
:1008780000340D340A3463346F34703469346134AD
:100888006E3464346F34203470342F3420346C3434
:100898006334643420343D342034253463340034E4
:1008A8000D340A3472347834203473346F34663437
:1008B80074343A3420342534633420343D342034BD
:1008C80030347834253430343234783400343034A9
:1008D80031343234333434343534363437343834CC
:1008E80039346134623463346434653466340034D2
:1008F8000D340A34663469346D34203464346F340A
:10090800203463346D34643420346C346334643498
:1009180000347034723469346E347434663420347C
:100928006434653473346C346934673461346434E2
:100938006F340034203420342034203420342034E0
:1009480020342034203420342034203420342034FF
:100958002034203400340D340A347634653472344B
:10096800203463346F346D3461346E3464346F34DE
:1009780000340D340A342534633420343D342034B3
:1009880030347834253430343234783400346534B3
:10099800723472346F3420346E346F3420346334DC
:1009A8006D34643400340D340A342534633420340F
:1009B8003D342034303478342534783400343134BC
:1009C80038342D346A3461346E342D343234303452
:1009D800313432340034503472346F346A3465340C
:1009E80074346F3420345634323400346F347634EF
:1009F8006534723466346C346F347734003461345F
:100A08006E3475346E346E3461346B34693400344A
:100A18000D340A3463346D3464343A3400340D349C
:100A28000A346134723467343A34003473346534C8
:100A38006E34683461343A340034B22D7919252D76
:100A4800262D282DC02DC02D7A08E9006908B3008D
:100A5800F91532080339E900E90A32086906FC3950
:100A68006906B200201E392D3A2DC02D0C30D00059
:100A78008530D1000A128A1115200A128A11D7303E
:100A880083120313D0008430D1003308E900EA014F
:100A98006908D2006A08D3003308EB00EC016B0840
:100AA800D4006C08D5000A128A1115200A128A117E
:100AB800C02DC02D7919612D622D642DC02DC02D3A
:100AC8007A08E9006908B400F91532080339E90021
:100AD800E90A32086906FC396906B200201E752D3C
:100AE800762DC02D1330D0008530D1000A128A111E
:100AF80015200A128A11BD3083120313D0008430E6
:100B0800D1003408E900EA016908D2006A08D30074
:100B18003408EB00EC016B08D4006C08D5000A120D
:100B28008A1115200A128A11C02DC02D201E9D2D54
:100B38009E2DA72DAF30D0008430D1000A128A1123
:100B480015200A128A110A128A1144220A128A11DD
:100B5800FC3083120313B205C02DC02D831203137A
:100B680032080339003A0319222D013A03195E2D80
:100B7800033A03199A2DC02D08006030831203131D
:100B8800CD004D08831603138605603083120313C6
:100B9800CD004D088605861306126230CE006530FA
:100BA800CD00CD0BD52DCE0BD52DDA2D8312031309
:100BB8000608F03903388600061606122130CE00E2
:100BC8007630CD00CD0BE62DCE0BE62D64008312DA
:100BD8000313061606120630CF001330CE00B130CC
:100BE800CD00CD0BF52DCE0BF52DCF0BF52DFC2D16
:100BF80083120313061606120630CF001330CE00F8
:100C0800B130CD00CD0B062ECE0B062ECF0B062E07
:100C18000D2E831203130608F039023886000616D3
:100C2800061228300A128A11DB230A128A110C30A4
:100C38000A128A11DB230A128A110A128A151E2740
:100C48000A128A1106300A128A11DB230A128A1143
:100C5800080083120313E4002010A0102011A01133
:100C680010304602031C392E3A2E692E201E3D2EC6
:100C78003E2E472E7C30D0008430D1000A128A11D3
:100C880015200A128A119E3083120313CC00843077
:100C9800CD006408E2006208CE000A128A15922785
:100CA8000A128A11353083120313CC000030CD00AC
:100CB8006408E2006208CE000A128A1592270A1216
:100CC8008A1183120313C601912E201E6C2E6D2EDD
:100CD8007E2E3D30D0008430D1003408E200E3019C
:100CE8006208D2006308D3000A128A1115200A127A
:100CF8008A117E2E831203133408E2004608353E1B
:100D080084006208831380000130E2006208C6078D
:100D18004608353E84008001912E0800791C952EE6
:100D2800962ED52EFA3083120313CF008430D000CC
:100D38005030D5005508D10020080139D600D70118
:100D48005608D2005708D3000A128A156A270A12D1
:100D58008A1179107911F911831603138C120D3049
:100D680083120313D700AF30D600C130D500D50B9E
:100D7800BB2ED60BBB2ED70BBB2E64009E30831226
:100D88000313CC008430CD005030D5005508CE0078
:100D98000A128A1592270A128A11831603138C16CF
:100DA800EE2E791DD82ED92EEE2EF91DDC2EDD2E35
:100DB800EE2E83120313201AE22EE32EEA2E7A086F
:100DC8000A128A15D7260A128A11EA2E7911F91100
:100DD800EE2EEE2E080083120313CD01CE01490832
:100DE80048040319F82EF92E372FCF010314CF0D1D
:100DF800092F01300310C80DC90DFF3E031DFE2E3B
:100E08000130CC004C08CF07092FC91F0C2F0D2F1C
:100E1800FD2E0F2F0F2F01300310CD0DCE0DFF3EED
:100E2800031D102F49084B02031D1C2F48084A02B6
:100E3800031C1F2F202F282F4808CA024908031C0B
:100E4800CB03CB024D14282F01300310C90CC80C5A
:100E5800FF3E031D292F0130CF02031D342F352FEC
:100E68000F2F372F372F4E08C901C9074D08C80162
:100E7800C8073E2F08008316031388128312031332
:100E880088160A128A15B2260A128A11FC308312B1
:100E98000313B2050A128A15EF260A128A11831261
:100EA800031381018B01C0308316031381008B1655
:100EB8000A128A11C1250A128A110A128A15C6272E
:100EC8000A128A110A128A11FB270A128A1183123E
:100ED800031388126F2F20308312031388060A1217
:100EE8008A154A270A128A110A128A1121250A121A
:100EF8008A110A128A1192260A128A116F2F6F2FED
:100F08000A128A111228F201F30183120313861AB6
:100F18008E2F8F2FCC2F9C30F000F00B912F640078
:100F2800F30108307302031C9A2F9B2F9D2FC02FAB
:100F3800C02FEA30F0006400F00B9F2FA32F64004D
:100F4800003083120313861A0130F000730AAE2FA3
:100F58000310F00DFF3E031DAC2F7008F10071085F
:100F6800F2040130F0007008F30708307302031C24
:100F7800BE2FBF2F9D2FC02F0330F1006F30F00020
:100F8800F00BC42FF10BC42FC92F7208CE2FCE2F10
:100F9800FF30CE2F080083120313CC01CD01D42FCC
:100FA800481CD72FD82FDE2F4A08CC070318CD0AA4
:100FB8004B08CD0701300310CA0DCB0DFF3E031DB2
:100FC800DF2F01300310C90CC80CFF3E031DE62FAC
:100FD80049084804031DF12FF22FD42FF32F4D0891
:100FE800C901C9074C08C801C807FA2F08000B1720
:040FF8008B1708004B
:101D6400831203132014A0142015A01520160800B4
:101D740064008001840A0406031900340406BB2E9F
:101D840083160313061386168B150B108312031385
:101D94000617080083120313CB0086174B080A1298
:101DA4008A11DB230A128A15080083120313C80060
:101DB400DB2E0C1EDE2EDF2EDB2EE02E48089900D3
:101DC400080083120313CB0086134B08803E0A12CB
:101DD4008A11DB230A128A15080079107911F91186
:101DE40079120A128A15FE260A128A150A128A150F
:101DF400C2260A128A1508008316031387170717C9
:101E040040309900903083120313980024308316D5
:101E1400031398008C160800F901FA01FB018313DF
:101E24002030840048300A128A15BA260A128A150C
:101E340083010A128A113F2F831203138613013080
:101E44000A128A11DB230A128A15823083120313C1
:101E5400CC00DD30CB00CB0B2D2FCC0B2D2F322F14
:101E6400080083120313C900C8013A304902031859
:101E74003C2F3D2F472F30304902031C422F432F64
:101E8400472FC8010314C80D472F480C492F0800D9
:101E9400791E4D2F4E2F692F543083120313D00017
:101EA4008430D1007B08E200E3016208D2006308B9
:101EB400D3007B08E400E5016408D4006508D5007C
:101EC4000A128A1115200A128A157912692F08003C
:101ED40083120313530852040319712F722F912F85
:101EE4009E30CC008430CD005108D4005408CE007C
:101EF4000A128A1592270A128A15831203135008AC
:101F0400CD01CD074F08CC01CC075108D4005408AB
:101F1400CE000A128A1592270A128A15912F0800F8
:101F2400831203134E080A128A15E3260A128A152D
:101F3400B42F831203134D08FF004C0884000A12C7
:101F44008A1100240A128A150A128A15CC260A124A
:101F54008A15013083120313CC070318CD0A00300D
:101F6400CD07B42F831203134D08FF004C088400DF
:101F74000A128A1100240A128A150038031DC32F7D
:101F8400C42F9B2FC52F0800EF3083120313CC00FE
:101F94008430CD00CE010A128A1592270A128A15BE
:101FA400E33083120313CC008430CD004030CF00E3
:101FB4004F08CE000A128A1592270A128A151A307F
:101FC40083120313CC008530CD001030CF004F08AE
:101FD400CE000A128A1592270A128A150330831238
:101FE4000313CC008530CD005030CF004F08CE0015
:0C1FF4000A128A1592270A128A150800AA
:02400E00E2FFCF
:00000001FF
