:060000000A128A11122809
:10000800FE00030EF5000408F6000A08F700831244
:1000180003137F08F8000A168A15CD2E0A168A15CA
:10002800462EC828791919281A281C28D628D6280F
:1000380007107A08C1004108CE00F9154E08FF3AAA
:10004800031D272828282C28FC30CD05D628D6289B
:100058004D080339C100C10A4D084106FC39410663
:10006800CD0083160313201E3A283B28D6289A3041
:1000780083120313A8008430A9000A168A116D237D
:100088000A128A117D3083120313A8008430A90054
:100098004E08C100C2014108AA004208AB004E0840
:1000A800C300C4014308AC004408AD000A168A1115
:1000B8006D230A128A11D628D6287919642865284A
:1000C8006728D628D6287A08C1004108CF00F91534
:1000D8004F08FF3A031D712872287628FC30CD0599
:1000E800D628D6284D080339C100C10A4D08410653
:1000F800FC394106CD0083160313201E8428852869
:10010800AB28A13083120313A8008430A9000A1673
:100118008A116D230A128A11633083120313A8000F
:100128008430A9004F08C100C2014108AA00420852
:10013800AB004F08C300C4014308AC004408AD003D
:100148000A168A116D230A128A11AB28AB28831666
:100158000313201EB028B128BC284530831203138E
:10016800A8008430A9000A168A116D230A128A1180
:100178000A128A1510200A128A11FC3083120313FE
:10018800CD050714D628D628831203134D08033942
:10019800003A03191628013A03196128033A03198A
:1001A800AB28D628080083120313B1010F300A16B2
:1001B8008A1502260A128A11233083120313A40017
:1001C8008430A5001030B4003408A6000A168A1539
:1001D80099260A128A11343083120313A40084303A
:1001E800A5005030B4003408A6000A168A159926CE
:0601F8000A128A11080042
:10020000FF1B0A2983137F1883170008840A031928
:10021000FF0A08007F087F398A000408840A03194E
:10022000FF0A8200013400341034003400340134F9
:10023000003410340434003400341B3408340834DF
:100240000E3400340F3400340734073403340334DD
:1002500001340F340F3407340034033407340F34BF
:100260000F340734033407341F341F341F341F3452
:100270001F341F34183410341F341F341D341D3400
:100280001F341F341F341F34183418341034003412
:1002900000340034003400340034183400341C348A
:1002A0001C3418341034183403340334013401344A
:1002B0000034073407340334003401340334073482
:1002C00007340334013403341F341F341F341F3404
:1002D0001F341F341C3418341F341F341E341E3492
:1002E0001F341F341F341F341C341C341834103492
:1002F00010340034003400340034183410341C340A
:100300001E341C3418341C340134013400340034DD
:100310000034033403340134003400340134033432
:1003200003340134003401341F341F341F341F34AC
:100330001F341F341E341C340F341F341F341F3439
:100340001F341F341F341F341E341E341C34183421
:10035000183410340034003410341C3418341E3473
:100360001F341E341C341E3403340334013400346F
:1003700000340034003400340034013400340334D9
:1003800007340334013403341F341F341F341F3443
:100390001F341F34033401341F341F34173417340F
:1003A0001F341F341F341F341C341C3418341834C9
:1003B00010341E341E341C34003418341C341E34E3
:1003C0001E341C3418341C34073407340734033407
:1003D0000134003400340034003403340134073471
:1003E0000F340734033407341F341F341F341F34D1
:1003F0001F341F34073403341F341F340F340F34B9
:100400001F341F341F341F34183418341034003490
:1004100010341C341C3418340034003418341C34A8
:100420001C341834103418340F340F3407340734A4
:1004300003340134003400340134073403340F34FE
:100440001F340F3407340F341F341F341F341F344C
:100450001F341F340F3407341E341F341F341F342D
:100460001F341F341F341F34003400340034003470
:100470000034183418341034003400341034183474
:10048000183410340034103403340734073407347C
:1004900007340134033407340134013403340334A2
:1004A00003340134003401341F341F341F341F342B
:1004B0001F341B34113411341F341F341D341D34C8
:1004C0001F341F341F341F3418341C341C341C34A4
:1004D0001C34103418341C340034103418340034F4
:1004E00018341C3418341034033403340334033404
:1004F0000134003400340034003401340134033456
:1005000003340334003401341F341F341F341F34C8
:100510001F341F341F341E341F341F341D341D3448
:100520001F341F341F341F3400340034103410348F
:1005300010340034103400340034183400341834CB
:100540001C341834103400341F341F341D34033469
:1005500007340F340F3407340034013401340334CA
:1005600003340334003407341F341F341F341F3462
:100570001F341334003400341F341F341D341D3431
:100580001F341F341F341F341E341E340C341C34EB
:100590001C341C3400340034003418340034183453
:1005A0001C34183410340034013403340734073455
:1005B00007340F340C340034003400340134013477
:1005C00003340334033400341F341F341F341F3406
:1005D0001F341F341E341F3400341F341F341D34A5
:1005E0001D341F341F341F341034183410340034B9
:1005F0000034003400340034003400341834003443
:1006000018341C34183410340034013401340134EB
:100610000034003401340034003403340034033433
:1006200007340334013400341F341F341F341F34A3
:100630001F341F341F340F341F341F341734173442
:100640001F341F341F341F3418341834183418342E
:1006500010340034003400340034103410341834B2
:1006600018341834103410340F340F340C34073469
:1006700007340734003400340034033400340334C6
:1006800007340334013400341F341F341F341F3443
:100690001F341934003400341F341F341734173416
:1006A0001F341F341F341F341F341F3417341834C1
:1006B0001C341E341E341C340034103410341834EE
:1006C0001834183400341C34013403340134003439
:1006D0000034003400340034003400340334003477
:1006E00003340734033401341F341F341F341F34E0
:1006F0001F341F340F341F3400341F341F34173499
:1007000017341F341F341F34103418341C341C3475
:100710001C341E34063400340034003410341034D9
:1007200018341834183400340D340A346E346534F7
:100730006E34683475346D34203463346F346D3402
:1007400061346E3464346F342034763461346C3404
:10075000693464346F34203465346E3463346F34F8
:100760006E3474347234613464346F3400340D3454
:100770000A3463346F347034693461346E346434F1
:100780006F34203470342F3420346C346334643448
:1007900020343D3420342534633400343034313453
:1007A00032343334343435343634373438343934FD
:1007B00061346234633464346534663400342D3417
:1007C0002D342D342D342D342D342D342D342D3421
:1007D0002D342D342D342D342D342D342D3400343E
:1007E0000D340A34663469346D34203464346F3423
:1007F000203463346D34643420346C3463346434B2
:1008000000347034723469346E3474346634203495
:100810006434653473346C346934673461346434FB
:100820006F340034203420342034203420342034F9
:100830002034203420342034203420342034203418
:10084000203420340034503472346F346A346534C8
:1008500074346F34203456342D3432342034203400
:100860002034203420340034313438342D346A3488
:1008700061346E342D3432343034313432342034F7
:10088000203420342034203400340D340A347634BB
:1008900065346E3464346F34203463346F346D34B3
:1008A00061346E3464346F340034653472347234BD
:1008B0006F3420346E346F34203470343134353436
:1008C0003034333400340D340A3425346334203466
:1008D0003D34203430347834253430343234783474
:1008E00000346534723472346F3420346E346F34B3
:1008F000203463346D34643400340D340A342534C8
:10090000633420343D342034303478342534783422
:1009100000346F3476346534723466346C346F343A
:1009200077340034463449344D342E342E342E344A
:100930002E3400340D340A3463346D3464343A3464
:1009400000340D340A346134723467343A3400347C
:10095000013083120313B8000030B9003808013E9B
:10096000B40039080318013E003EB5003808023EC5
:10097000B60039080318013E003EB7000A168A1572
:10098000D6250A128A11DF3083120313A4008330A4
:10099000A5001030B1003108A6000A168A15992664
:1009A0000A128A11B43083120313A3008130A40009
:1009B00000300A168A1577270A128A11BC30831272
:1009C0000313A3008130A40001300A168A1577278B
:1009D0000A128A11C43083120313A3008130A400C9
:1009E00002300A168A1577270A128A11CC30831230
:1009F0000313A3008130A40003300A168A15772759
:100A00000A128A11D43083120313A3008130A40088
:100A100004300A168A1577270A128A11DC308312ED
:100A20000313A3008130A40005300A168A15772726
:100A30000A128A1183120313A3010314A30D3808A9
:100A40000A168A11C8200A128A1100300A168A155D
:100A50006B250A128A1183120313A30138080A16A0
:100A60008A11C8200A128A1101300A168A156B25CC
:100A70000A128A1183120313A3010314A30D34086D
:100A80000A168A11C8200A128A1102300A168A151B
:100A90006B250A128A1183120313A30134080A1664
:100AA0008A11C8200A128A1103300A168A156B258A
:100AB0000A128A1183120313A3010314A30D36082B
:100AC0000A168A11C8200A128A1104300A168A15D9
:100AD0006B250A128A1183120313A30136080A1622
:100AE0008A11C8200A128A1105300A168A156B2548
:100AF0000A128A11043083120313B300CF30B200FC
:100B00000330B100B10B822DB20B822DB30B822DBD
:100B1000892D0A168A15D6250A128A11DF3083120A
:100B20000313A4008330A5001030B1003108A600E3
:100B30000A168A1599260A128A11E43083120313C1
:100B4000A3008130A40000300A168A1577270A1204
:100B50008A11EC3083120313A3008130A40001300A
:100B60000A168A1577270A128A11F43083120313A2
:100B7000A3008130A40002300A168A1577270A12D2
:100B80008A11FC3083120313A3008130A4000330C8
:100B90000A168A1577270A128A1104308312031362
:100BA000A3008230A40004300A168A1577270A129F
:100BB0008A110C3083120313A3008230A400053085
:100BC0000A168A1577270A128A1183120313A301C2
:100BD0000314A30D38080A168A11C8200A128A11B4
:100BE00000300A168A156B250A128A118312031324
:100BF000A30138080A168A11C8200A128A11013086
:100C00000A168A156B250A128A1183120313A3018F
:100C10000314A30D34080A168A11C8200A128A1177
:100C200002300A168A156B250A128A1183120313E1
:100C3000A30134080A168A11C8200A128A11033047
:100C40000A168A156B250A128A1183120313A3014F
:100C50000314A30D36080A168A11C8200A128A1135
:100C600004300A168A156B250A128A11831203139F
:100C7000A30136080A168A11C8200A128A11053003
:100C80000A168A156B250A128A110430831203137F
:100C9000B300CF30B2000330B100B10B4D2EB20B18
:100CA0004D2EB30B4D2E542E143083120313A3007C
:100CB0008230A40000300A168A1577270A128A119A
:100CC0001C3083120313A3008230A40001300A16E3
:100CD0008A1577270A128A11243083120313A3007E
:100CE0008230A40002300A168A1577270A128A1168
:100CF0002C3083120313A3008230A40003300A16A1
:100D00008A1577270A128A11343083120313A3003D
:100D10008230A40004300A168A1577270A128A1135
:100D20003C3083120313A3008230A40005300A165E
:100D30008A1577270A128A1183120313A301031459
:100D4000A30D38080A168A11C8200A128A11003029
:100D50000A168A156B250A128A1183120313A3013E
:100D600038080A168A11C8200A128A1101300A1698
:100D70008A156B250A128A1183120313A301031427
:100D8000A30D34080A168A11C8200A128A110230EB
:100D90000A168A156B250A128A1183120313A301FE
:100DA00034080A168A11C8200A128A1103300A165A
:100DB0008A156B250A128A1183120313A3010314E7
:100DC000A30D36080A168A11C8200A128A110430A7
:100DD0000A168A156B250A128A1183120313A301BE
:100DE00036080A168A11C8200A128A1105300A1616
:100DF0008A156B250A128A11043083120313B3007B
:100E0000CF30B2000330B100B10B042FB20B042F6E
:100E1000B30B042F0B2F080083120313B601B70185
:100E20003608013EB20037080318013E003EB30009
:100E30003608023EB40037080318013E003EB500F4
:100E4000DF30A4008330A5001030B1003108A600C7
:100E50000A168A1599260A128A114430831203133E
:100E6000A3008230A40000300A168A1577270A12E0
:100E70008A114C3083120313A3008230A400013086
:100E80000A168A1577270A128A115430831203131F
:100E9000A3008230A40002300A168A1577270A12AE
:100EA0008A115C3083120313A3008230A400033044
:100EB0000A168A1577270A128A11643083120313DF
:100EC000A3008230A40004300A168A1577270A127C
:100ED0008A116C3083120313A3008230A400053002
:100EE0000A168A1577270A128A1183120313A3019F
:100EF0000314A30D36080A168A11C8200A128A1193
:100F000000300A168A156B250A128A118312031300
:100F1000A30136080A168A11C8200A128A11013064
:100F20000A168A156B250A128A1183120313A3016C
:100F30000314A30D32080A168A11C8200A128A1156
:100F400002300A168A156B250A128A1183120313BE
:100F5000A30132080A168A11C8200A128A11033026
:100F60000A168A156B250A128A1183120313A3012C
:100F70000314A30D34080A168A11C8200A128A1114
:100F800004300A168A156B250A128A11831203137C
:100F9000A30134080A168A11C8200A128A110530E2
:100FA0000A168A156B250A128A1108008312031388
:100FB0002B082A040319DD2FDE2FFD2F1230A40089
:100FC0008430A5002908AC002C08A6000A168A1552
:100FD00099260A128A11831203132808A501A5076E
:100FE0002708A401A4072908AC002C08A6000A16AB
:0C0FF0008A1599260A128A11FD2F0800AC
:101000008316031387170717403099009030831217
:101010000313980020308316031398008C160800E1
:101020000D29E50100300A168A1155220A128A1587
:101030003829403083120313BD003D08E5004030DD
:101040000A168A1155220A128A153829103083127D
:101050000313BD003D08E50010300A168A11552221
:101060000A128A153829503083120313BD003D0837
:10107000E50050300A168A1155220A128A153829BD
:10108000123083120313A4008430A500A6010A16AF
:101090008A1599260A128A15123083120313A400A6
:1010A0008430A5004030BD003D08A6000A168A1510
:1010B00099260A128A15123083120313A400843071
:1010C000A5001030BD003D08A6000A168A15992615
:1010D0000A128A15123083120313A4008430A5006B
:1010E0005030BD003D08A6000A168A1599260A123E
:1010F0008A153829123083120313BD003D08E4001D
:1011000065080A168A1155220A128A1538290A1604
:101110008A153C250A128A1583120313BD003D0867
:10112000FA0038294F080A168A1522260A128A154B
:1011300038299A28831203134F08BD003D08A000E8
:101140004E080A168A15A7250A128A153829831609
:1011500003132014A0142015A0152016A01638295A
:10116000831603132010A0102011A011A0123829FB
:1011700001308312A7008430A8001030BD003D0864
:10118000A90083160313200C83120313BE00BE0CA8
:101190003E0C0139BF00C0013F08AA004008AB0067
:1011A0000A128A11D6270A128A15831603132012EF
:1011B000382983160313201EDE28DF28EA289430FE
:1011C00083120313A8008330A9000A168A116D2325
:1011D0000A128A15713083120313A7008430A80005
:1011E0001030BD003D08A90083160313200C8312A4
:1011F0000313BE00BE0C3E0C0139BF00C0013F0806
:10120000AA004008AB000A128A11D6270A128A15D2
:1012100083120313E40138293829831203134E087B
:10122000013A031987280B3A03199A28013A03193E
:101230009A28153A031992287F3A03191128033A7C
:1012400003191928013A03192628073A03193328E4
:10125000013A03194028033A03197A280E3A031970
:10126000A728013A0319B028033A0319B828D92846
:10127000080083120313BA010B303A02031C412900
:10128000422944299B2C9B2C3A08013EB10031088D
:10129000B4003A08023EB1003108B6003A08033EF5
:1012A000B1003108B8003A08043EB1003108B90075
:1012B0003A08053EB1003108B7003A08063EB100D1
:1012C0003108B5000A168A15D6250A128A15DF30AC
:1012D00083120313A4008330A5001030B10031083D
:1012E000A6000A168A1599260A128A1574308312E6
:1012F0000313A3008230A40000300A168A15772752
:101300000A128A157C3083120313A3008230A400D2
:1013100001300A168A1577270A128A15843083123B
:101320000313A3008230A40002300A168A1577271F
:101330000A128A158C3083120313A3008230A40092
:1013400003300A168A1577270A128A1594308312F9
:101350000313A3008230A40004300A168A157727ED
:101360000A128A159C3083120313A3008230A40052
:1013700005300A168A1577270A128A158312031375
:10138000A3010314A30D34080A168A11C8200A12F7
:101390008A1500300A168A156B250A128A158312DF
:1013A0000313A30134080A168A11C8200A128A15E9
:1013B00001300A168A156B250A128A158312031347
:1013C000A3010314A30D36080A168A11C8200A12B5
:1013D0008A1502300A168A156B250A128A1583129D
:1013E0000313A30136080A168A11C8200A128A15A7
:1013F00003300A168A156B250A128A158312031305
:10140000A3010314A30D38080A168A11C8200A1272
:101410008A1504300A168A156B250A128A1583125A
:101420000313A30138080A168A11C8200A128A1564
:1014300005300A168A156B250A128A1504308312A4
:101440000313B300CF30B2000330B100B10B262A32
:10145000B20B262AB30B262A2D2A0A168A15D62560
:101460000A128A15DF3083120313A4008330A5000B
:101470001030B1003108A6000A168A1599260A1202
:101480008A15A43083120313A3008230A400003015
:101490000A168A1577270A128A15AC3083120313AD
:1014A000A3008230A40001300A168A1577270A1299
:1014B0008A15B43083120313A3008230A4000230D3
:1014C0000A168A1577270A128A15BC30831203136D
:1014D000A3008230A40003300A168A1577270A1267
:1014E0008A15C43083120313A3008230A400043091
:1014F0000A168A1577270A128A15CC30831203132D
:10150000A3008230A40005300A168A1577270A1234
:101510008A1583120313A3010314A30D36080A16B8
:101520008A11C8200A128A1500300A168A156B25FE
:101530000A128A1583120313A30136080A168A11A8
:10154000C8200A128A1501300A168A156B250A125C
:101550008A1583120313A3010314A30D38080A1676
:101560008A11C8200A128A1502300A168A156B25BC
:101570000A128A1583120313A30138080A168A1166
:10158000C8200A128A1503300A168A156B250A121A
:101590008A1583120313A3010314A30D39080A1635
:1015A0008A11C8200A128A1504300A168A156B257A
:1015B0000A128A1583120313A30139080A168A1125
:1015C000C8200A128A1505300A168A156B250A12D8
:1015D0008A15043083120313B300CF30B2000330F6
:1015E000B100B10BF12AB20BF12AB30BF12AF82AA0
:1015F0000A168A15D6250A128A15DF3083120313BC
:10160000A4008330A5001030B1003108A6000A16EE
:101610008A1599260A128A15743083120313A300BF
:101620008230A40000300A168A1577270A128A151C
:101630007C3083120313A3008230A40001300A1609
:101640008A1577270A128A15843083120313A300A0
:101650008230A40002300A168A1577270A128A15EA
:101660008C3083120313A3008230A40003300A16C7
:101670008A1577270A128A15943083120313A30060
:101680008230A40004300A168A1577270A128A15B8
:101690009C3083120313A3008230A40005300A1685
:1016A0008A1577270A128A1583120313A3010314DC
:1016B000A30D38080A168A11C8200A128A150030AC
:1016C0000A168A156B250A128A1583120313A301C1
:1016D00038080A168A11C8200A128A1501300A161B
:1016E0008A156B250A128A1583120313A3010314AA
:1016F000A30D39080A168A11C8200A128A15023069
:101700000A168A156B250A128A1583120313A30180
:1017100039080A168A11C8200A128A1503300A16D7
:101720008A156B250A128A1583120313A301031469
:10173000A30D37080A168A11C8200A128A15043028
:101740000A168A156B250A128A1583120313A30140
:1017500037080A168A11C8200A128A1505300A1697
:101760008A156B250A128A15043083120313B300FD
:10177000CF30B2000330B100B10BBC2BB20BBC2B8D
:10178000B30BBC2BC32B0A168A15D6250A128A1551
:10179000DF3083120313A4008330A5001030B100A2
:1017A0003108A6000A168A1599260A128A15D4301D
:1017B00083120313A3008230A40000300A168A1596
:1017C00077270A128A15DC3083120313A3008230B4
:1017D000A40001300A168A1577270A128A15E43008
:1017E00083120313A3008230A40002300A168A1564
:1017F00077270A128A15EC3083120313A300823074
:10180000A40003300A168A1577270A128A15F430C5
:1018100083120313A3008230A40004300A168A1531
:1018200077270A128A15FC3083120313A300823033
:10183000A40005300A168A1577270A128A15831222
:101840000313A3010314A30D39080A168A11C82033
:101850000A128A1500300A168A156B250A128A1593
:1018600083120313A30139080A168A11C8200A1229
:101870008A1501300A168A156B250A128A158312F9
:101880000313A3010314A30D37080A168A11C820F5
:101890000A128A1502300A168A156B250A128A1551
:1018A00083120313A30137080A168A11C8200A12EB
:1018B0008A1503300A168A156B250A128A158312B7
:1018C0000313A3010314A30D35080A168A11C820B7
:1018D0000A128A1504300A168A156B250A128A150F
:1018E00083120313A30135080A168A11C8200A12AD
:1018F0008A1505300A168A156B250A128A150430D6
:1019000083120313B300CF30B2000330B100B10B28
:10191000872CB20B872CB30B872C8E2C04308312B0
:101920000313B1003108BA070B303A02031C992C9B
:101930009A2C44299B2C0800103083120313B10009
:101940003108BA0005303A020318A72CA82CAA2C9B
:10195000FF2FFF2F3A08FF3EB1003108B4003A08CC
:10196000FE3EB1003108B6003A08FD3EB100310834
:10197000B8003A08FC3EB1003108B9003A08FB3E15
:10198000B1003108B7003A08FA3EB1003108B5009D
:101990000A168A15D6250A128A15DF308312031318
:1019A000A4008330A5001030B1003108A6000A164B
:1019B0008A1599260A128A15043083120313A3008C
:1019C0008330A40000300A168A1577270A128A1578
:1019D0000C3083120313A3008330A40001300A16D5
:1019E0008A1577270A128A15143083120313A3006D
:1019F0008330A40002300A168A1577270A128A1546
:101A00001C3083120313A3008330A40003300A1692
:101A10008A1577270A128A15243083120313A3002C
:101A20008330A40004300A168A1577270A128A1513
:101A30002C3083120313A3008330A40005300A1650
:101A40008A1577270A128A1583120313A301031438
:101A5000A30D38080A168A11C8200A128A15003008
:101A60000A168A156B250A128A1583120313A3011D
:101A700038080A168A11C8200A128A1501300A1677
:101A80008A156B250A128A1583120313A301031406
:101A9000A30D36080A168A11C8200A128A150230C8
:101AA0000A168A156B250A128A1583120313A301DD
:101AB00036080A168A11C8200A128A1503300A1637
:101AC0008A156B250A128A1583120313A3010314C6
:101AD000A30D34080A168A11C8200A128A15043088
:101AE0000A168A156B250A128A1583120313A3019D
:101AF00034080A168A11C8200A128A1505300A16F7
:101B00008A156B250A128A15043083120313B30059
:101B1000CF30B2000330B100B10B8C2DB20B8C2D45
:101B2000B30B8C2D932D0A168A15D6250A128A1509
:101B3000DF3083120313A4008330A5001030B100FE
:101B40003108A6000A168A1599260A128A15343019
:101B500083120313A3008330A40000300A168A15F1
:101B600077270A128A153C3083120313A3008330AF
:101B7000A40001300A168A1577270A128A15443004
:101B800083120313A3008330A40002300A168A15BF
:101B900077270A128A154C3083120313A30083306F
:101BA000A40003300A168A1577270A128A155430C2
:101BB00083120313A3008330A40004300A168A158D
:101BC00077270A128A155C3083120313A30083302F
:101BD000A40005300A168A1577270A128A1583127F
:101BE0000313A3010314A30D39080A168A11C82090
:101BF0000A128A1500300A168A156B250A128A15F0
:101C000083120313A30139080A168A11C8200A1285
:101C10008A1501300A168A156B250A128A15831255
:101C20000313A3010314A30D38080A168A11C82050
:101C30000A128A1502300A168A156B250A128A15AD
:101C400083120313A30138080A168A11C8200A1246
:101C50008A1503300A168A156B250A128A15831213
:101C60000313A3010314A30D36080A168A11C82012
:101C70000A128A1504300A168A156B250A128A156B
:101C800083120313A30136080A168A11C8200A1208
:101C90008A1505300A168A156B250A128A15043032
:101CA00083120313B300CF30B2000330B100B10B85
:101CB000572EB20B572EB30B572E5E2E0A168A15CF
:101CC000D6250A128A15DF3083120313A40083304D
:101CD000A5001030B1003108A6000A168A15992611
:101CE0000A128A15043083120313A3008330A40060
:101CF00000300A168A1577270A128A150C308312CB
:101D00000313A3008330A40001300A168A15772735
:101D10000A128A15143083120313A3008330A4001F
:101D200002300A168A1577270A128A151C30831288
:101D30000313A3008330A40003300A168A15772703
:101D40000A128A15243083120313A3008330A400DF
:101D500004300A168A1577270A128A152C30831246
:101D60000313A3008330A40005300A168A157727D1
:101D70000A128A1583120313A3010314A30D370853
:101D80000A168A11C8200A128A1500300A168A1506
:101D90006B250A128A1583120313A30137080A164A
:101DA0008A11C8200A128A1501300A168A156B2575
:101DB0000A128A1583120313A3010314A30D390811
:101DC0000A168A11C8200A128A1502300A168A15C4
:101DD0006B250A128A1583120313A30139080A1608
:101DE0008A11C8200A128A1503300A168A156B2533
:101DF0000A128A1583120313A3010314A30D3808D2
:101E00000A168A11C8200A128A1504300A168A1581
:101E10006B250A128A1583120313A30138080A16C8
:101E20008A11C8200A128A1505300A168A156B25F0
:101E30000A128A15043083120313B300CF30B200A4
:101E40000330B100B10B222FB20B222FB30B222F84
:101E5000292F0A168A15D6250A128A15DF30831211
:101E60000313A4008330A5001030B1003108A60090
:101E70000A168A1599260A128A15643083120313EA
:101E8000A3008330A40000300A168A1577270A12AF
:101E90008A156C3083120313A3008330A400013031
:101EA0000A168A1577270A128A15743083120313CB
:101EB000A3008330A40002300A168A1577270A127D
:101EC0008A157C3083120313A3008330A4000330EF
:101ED0000A168A1577270A128A158430831203138B
:101EE000A3008330A40004300A168A1577270A124B
:101EF0008A158C3083120313A3008330A4000530AD
:101F00000A168A1577270A128A1583120313A3016A
:101F10000314A30D35080A168A11C8200A128A155F
:101F200000300A168A156B250A128A1583120313CC
:101F3000A30135080A168A11C8200A128A15013031
:101F40000A168A156B250A128A1583120313A30138
:101F50000314A30D37080A168A11C8200A128A151D
:101F600002300A168A156B250A128A15831203138A
:101F7000A30137080A168A11C8200A128A150330ED
:101F80000A168A156B250A128A1583120313A301F8
:101F90000314A30D39080A168A11C8200A128A15DB
:101FA00004300A168A156B250A128A158312031348
:101FB000A30139080A168A11C8200A128A150530A9
:101FC0000A168A156B250A128A1504308312031328
:101FD000B300CF30B2000330B100B10BED2FB20B24
:101FE000ED2FB30BED2FF42F043083120313BA023D
:101FF00005303A020318FD2FFE2FAA2CFF2F0800F0
:102004000A168A15D6250A168A110A128A110C276D
:102014000A168A110A128A1539210A168A110A1611
:102024008A119C250A168A110A128A159C240A16FA
:102034008A110A128A11A8240A168A11923083126C
:102044000313A4008430A5005030BB003B08A60055
:102054000A168A1599260A168A110800F201F30154
:1020640083120313861A3728382875289C30F00009
:10207400F00B3A286400F30108307302031C432870
:102084004428462869286928EA30F0006400F00BE7
:1020940048284C286400003083120313861A013048
:1020A400F000730A57280310F00DFF3E031D552856
:1020B4007008F1007108F2040130F0007008F307B1
:1020C40008307302031C67286828462869280330EF
:1020D400F1006F30F000F00B6D28F10B6D287228C1
:1020E400720877287728FF307728080083120313B3
:1020F400A501A60121082004031981288228C028EB
:10210400A7010314A70D922801300310A00DA10DFF
:10211400FF3E031D87280130A4002408A707922846
:10212400A11F9528962886289828982801300310FE
:10213400A50DA60DFF3E031D992821082302031DAA
:10214400A52820082202031CA828A928B1282008B1
:10215400A2022108031CA303A3022514B128013001
:102164000310A10CA00CFF3E031DB2280130A702EE
:10217400031DBD28BE289828C028C0282608A10110
:10218400A1072508A001A007C7280800831203138C
:10219400B000283084006630A4000408A50008308C
:1021A400A6002408840083130008A700A40A2508B5
:1021B400840027088000A50AA60BD3281A308400BF
:1021C4008130FF000A128A1100210A168A11A40024
:1021D4000A128A1100210A168A11A5002508803ADC
:1021E400803C031DF72824082302031CFA28FB283B
:1021F4000B291A308400813083120313FF000A1262
:102204008A1100210A168A11FF3EA4002408A300A3
:102214000B298312031386132308A4002407283EE2
:10222400840030088313000780380A168A150327B0
:102234000A168A110800791C202921296429893069
:1022440083120313A7008430A8005030AD002D087A
:10225400A900831603132008013983120313AE0067
:10226400AF012E08AA002F08AB000A128A11D62744
:102274000A168A1179107911F911831603138C1235
:102284000D3083120313AF00AF30AE00C130AD0088
:10229400AD0B4A29AE0B4A29AF0B4A296400123010
:1022A40083120313A4008430A5005030AD002D0820
:1022B400A6000A168A1599260A168A11831603138C
:1022C4008C167D29791D672968297D29F91D6B29BB
:1022D4006C297D2983160313201A712972297929FF
:1022E4007A080A168A1576250A168A117929791127
:1022F400F9117D297D290800023083120313C700D8
:102304004530C600A930C500C50B8629C60B8629F1
:10231400C70B86298D298316031307108312031311
:1023240007100A168A1549250A168A11FC308312E9
:102334000313CD050A168A159A250A168A110A1658
:102344008A15B4250A168A110A168A11E8210A1672
:102354008A110B178B170A128A11D7200A168A11B1
:102364000A168A15BA270A168A1183120313071448
:102374000D30C700AF30C600C130C500C50BC02941
:10238400C60BC029C70BC0296400C82983120313D4
:102394008718CD29CE29D42907140A168A110220B8
:1023A4000A168A110A168A11CD220A168A110A12ED
:1023B4008A1115200A168A110A168A111D210A1675
:1023C4008A11C829C8290A128A1112286030831276
:1023D4000313A500250883160313860560308312B2
:1023E4000313A50025088605861306128230A6006D
:1023F400DD30A500A50BFC29A60BFC29012A8312BC
:1024040003130608F03903388600061606128230D4
:10241400A600DD30A500A50B0D2AA60B0D2A122A55
:1024240083120313061606128230A600DD30A500BF
:10243400A50B1A2AA60B1A2A1F2A8312031306169F
:1024440006128230A600DD30A500A50B272AA60BB4
:10245400272A2C2A831203130608F039023886002F
:10246400061606128230A600DD30A500A50B382A18
:10247400A60B382A3D2A28300A168A1503270A167D
:102484008A110C300A168A1503270A168A110A16AD
:102494008A15D6250A168A1106300A168A150327C4
:1024A4000A168A11080083120313BC00831603134F
:1024B4002010A0102011A011A012A01E622A632ACD
:1024C400652ACC2ACC2A1030831203136402031C1D
:1024D4006C2A6D2AA02A83160313201E722A732ADB
:1024E4007E2AF03083120313A8008330A9000A1651
:1024F4008A116D230A168A11123083120313A40061
:102504008430A5003C08BA003A08A6000A168A15C9
:1025140099260A168A11533083120313A40000303B
:10252400A5003C08BA003A08A6000A168A1599269E
:102534000A168A1183120313E401CC2A83160313A7
:10254400201EA52AA62AB92AB73083120313A8008D
:102554008330A9004F08BA00BB013A08AA003B081F
:10256400AB000A168A116D230A168A11B92A83123E
:1025740003134F08BA006408533E84003A088313D7
:1025840080000130BA003A08E4076408533E84002E
:102594008001CC2A0800831203134C1CD22AD32AAC
:1025A4006C2B572B572B6C2B48080A168A153C2783
:1025B4000A168A1183120313D1010130A7002708D8
:1025C400CB076C2B791EE72AE82AFA2A7B084806EF
:1025D400031DED2AEE2AF32A0130A7002708CB07B2
:1025E400F82A0530A7002708CB00F82A79126C2BAB
:1025F4000130A7002708D107CA305102031C032B5E
:10260400042B6C2B0530A7002708CB006C2B6C2BFC
:102614006C2B49080A168A153C270A168A1183125C
:102624000313D1010130A7002708CB076C2B791EB7
:102634001C2B1D2B242B7B08A7002708CA00CB01C9
:1026440079126C2B0130A7002708D107CA30510238
:10265400031C2D2B2E2B6C2B0530A7002708CB0039
:102664006C2B6C2B6C2B4C10CB01CA01D101553057
:10267400A4008430A500A6010A168A1599260A1614
:102684008A110D3083120313A900AF30A800C130A2
:10269400A700A70B4B2BA80B4B2BA90B4B2B6400B0
:1026A4006C2BCB014C106C2B6C2B4B08003A031990
:1026B4006C2B013A0319D62A033A0319E42A013A86
:1026C40003190B2B073A0319192B013A0319352B5C
:1026D400532B6C2B08002A3083120313AE002E08F0
:1026E400B3007E2D3908253A0319792B7A2B812BD7
:1026F40039080A168A1576250A168A117E2D831240
:102704000313B701B801B101912B912B311501309D
:10271400A8070318A90A0030A907912BA02B2908A0
:10272400FF00280884000A128A1100210A168A115F
:10273400303A0319882BA02BA02B912B2908FF00DA
:10274400280884000A128A1100210A168A110A161E
:102754008A15EB250A168A11031CB12BB22B692C9E
:1027640083120313B701B801B72B8312031338087C
:10277400A101A1073708A001A0070A30A200003078
:10278400A3000A168A156D260A168A1183120313EA
:102794002908FF00280884000A128A1100210A1659
:1027A4008A112007AE000030031801302107AF0062
:1027B4002E08D03EB7002F080318013EFF3EB80094
:1027C4000130A8070318A90A0030A9072908FF0047
:1027D400280884000A128A1100210A168A110A168E
:1027E4008A15EB250A168A110318F92BFA2BB72B35
:1027F400692C692C692C9B2D872C831203133808B0
:102804003602031D072C3708350203180A2C0B2C3B
:10281400122C3508B7023608031CB803B8021D2C65
:10282400B701B8011D2C1D2C20300A168A157625F7
:102834000A168A111D2CFF3083120313B7070318DD
:10284400B80AFF30B807FF303806031D2B2CFF30C1
:102854003706031D2E2C2F2C162C412C412C34080A
:102864008400831300080A168A1576250A168A112D
:10287400013083120313AE002E08B407412C01303B
:10288400B5020030031CB603B602FF303606031D42
:102894004D2CFF303506031D502C512C312C7E2D30
:1028A4007E2D3308840083130008AE002E08B9007F
:1028B4000230AE002E08B3075F2C3930AE002E086C
:1028C400B4000130B5000030B600FF2B872C831212
:1028D40003132908AF002808AE000130A807031825
:1028E400A90A2F08FF002E0884000A128A11002169
:1028F4000A168A11B900003A03199B2D633A031989
:10290400532C1B3A0319872C5F2C831203133308AF
:10291400840083130008B400840A0008B500023060
:10292400AE002E08B307B9010314B90D3908043AEF
:10293400031D9D2C9E2CA02CCC2CCC2C3908AE0035
:102944002E07123E840081300318013EFF000A1254
:102954008A1100210A168A11AF000A128A11002175
:102964000A168A11B00030083502031DBB2C2F084B
:1029740034020318BE2CBF2CC12CCC2CCC2C01301F
:10298400AE002E08B9073908043A031DCA2CCB2C13
:10299400A02CCC2C3908AE00AF01AE1BAF032F081E
:1029A400803AB0003808803A3002031DDB2C370827
:1029B4002E020318DE2CDF2CED2C831203133908AE
:1029C400AE00AF01AE1BAF032E08B7022F08031CE5
:1029D400B803B802F22C83120313B701B801F22C26
:1029E400311DF52CF62C142D380837040319FB2C53
:1029F400FC2C322DFD2C30300A168A1576250A1649
:102A04008A11FF3083120313B7070318B80AFF3083
:102A1400B80738083704031D102D112DFD2C322D55
:102A2400322D322D380837040319192D1A2D322D61
:102A34001B2D20300A168A1576250A168A11FF30B6
:102A440083120313B7070318B80AFF30B80738080E
:102A54003704031D2E2D2F2D1B2D322D322D322DFB
:102A64003908AE002E08B200702D3208AE002E07D1
:102A7400123E840081300318013EFF000A128A11BD
:102A840000210A168A11A0000A128A1100210A16CE
:102A94008A11A1003508A301A3073408A201A207E3
:102AA4000A168A1178200A168A1183120313200841
:102AB4000F39CE3E840083300318013EFF000A1212
:102AC4008A1100210A168A11AF002F08B9003908AB
:102AD4000A168A1576250A168A11702DFF3083127C
:102AE4000313AE002E08B2073208FF3A031D7B2DF4
:102AF4007C2D372D7E2D7E2D831203132908AF00E4
:102B04002808AE000130A8070318A90A2F08FF00FF
:102B14002E0884000A128A1100210A168A11B000B4
:102B24003008B900B908031D982D992D742B9B2DDD
:102B34009B2D08000D3083120313B8000030B90038
:102B44003808013EB40039080318013E003EB500C0
:102B54003808023EB60039080318013E003EB700AB
:102B64000A168A15D6250A168A11DF308312031332
:102B7400A4008330A5001030B1003108A6000A1665
:102B84008A1599260A168A11243083120313A30086
:102B94008130A40000300A168A1577270A168A1194
:102BA4002C3083120313A3008130A40001300A16D1
:102BB4008A1577270A168A11343083120313A30067
:102BC4008130A40002300A168A1577270A168A1162
:102BD4003C3083120313A3008130A40003300A168F
:102BE4008A1577270A168A11443083120313A30027
:102BF4008130A40004300A168A1577270A168A1130
:102C04004C3083120313A3008130A40005300A164C
:102C14008A1577270A168A1183120313A301031452
:102C2400A30D38080A168A11C8200A168A11003022
:102C34000A168A156B250A168A1183120313A30137
:102C440038080A168A11C8200A168A1101300A1691
:102C54008A156B250A168A1183120313A301031420
:102C6400A30D34080A168A11C8200A168A110230E4
:102C74000A168A156B250A168A1183120313A301F7
:102C840034080A168A11C8200A168A1103300A1653
:102C94008A156B250A168A1183120313A3010314E0
:102CA400A30D36080A168A11C8200A168A110430A0
:102CB4000A168A156B250A168A1183120313A301B7
:102CC40036080A168A11C8200A168A1105300A160F
:102CD4008A156B250A168A11043083120313B30074
:102CE400CF30B2000330B100B10B762EB20B762E8A
:102CF400B30B762E7D2E0A168A15D6250A168A114E
:102D0400DF3083120313A4008330A5001030B10018
:102D14003108A6000A168A1599260A168A11543013
:102D240083120313A3008130A40000300A168A150D
:102D340077270A168A115C3083120313A3008130AB
:102D4400A40001300A168A1577270A168A116430FE
:102D540083120313A3008130A40002300A168A15DB
:102D640077270A168A116C3083120313A30081306B
:102D7400A40003300A168A1577270A168A117430BC
:102D840083120313A3008130A40004300A168A15A9
:102D940077270A168A117C3083120313A30081302B
:102DA400A40005300A168A1577270A168A11831299
:102DB4000313A3010314A30D38080A168A11C820AB
:102DC4000A168A1100300A168A156B250A168A110A
:102DD40083120313A30138080A168A11C8200A169D
:102DE4008A1101300A168A156B250A168A11831274
:102DF4000313A3010314A30D34080A168A11C8206F
:102E04000A168A1102300A168A156B250A168A11C7
:102E140083120313A30134080A168A11C8200A1660
:102E24008A1103300A168A156B250A168A11831231
:102E34000313A3010314A30D36080A168A11C8202C
:102E44000A168A1104300A168A156B250A168A1185
:102E540083120313A30136080A168A11C8200A161E
:102E64008A1105300A168A156B250A168A11043050
:102E740083120313B300CF30B2000330B100B10B9F
:102E8400412FB20B412FB30B412F482F84308312B3
:102E94000313A3008130A40000300A168A15772793
:102EA4000A168A118C3083120313A3008130A40004
:102EB40001300A168A1577270A168A11943083126C
:102EC4000313A3008130A40002300A168A15772761
:102ED4000A168A119C3083120313A3008130A400C4
:102EE40003300A168A1577270A168A11A43083122A
:102EF4000313A3008130A40004300A168A1577272F
:102F04000A168A11AC3083120313A3008130A40083
:102F140005300A168A1577270A168A1183120313B5
:102F2400A3010314A30D38080A168A11C8200A162F
:102F34008A1100300A168A156B250A168A11831223
:102F44000313A30138080A168A11C8200A168A1125
:102F540001300A168A156B250A168A118312031387
:102F6400A3010314A30D34080A168A11C8200A16F3
:102F74008A1102300A168A156B250A168A118312E1
:102F84000313A30134080A168A11C8200A168A11E9
:102F940003300A168A156B250A168A118312031345
:102FA400A3010314A30D36080A168A11C8200A16B1
:102FB4008A1104300A168A156B250A168A1183129F
:102FC4000313A30136080A168A11C8200A168A11A7
:102FD40005300A168A156B250A168A1104308312E5
:102FE4000313B300CF30B2000330B100B10BF82F9C
:0C2FF400B20BF82FB30BF82FFF2F0800D2
:103A7800831203134C080139412D080001308312C9
:103A88000313A0002008CB0008008316031320109E
:103A9800A0102011A011A012080064008001840A5F
:103AA8000406031900340406522D0034003440344F
:103AB80000341034003450340034831603130613D2
:103AC80086168B150B108312031306170800831232
:103AD8000313A300861723080A168A1503270A1654
:103AE8008A15080083120313A0007A2D0C1E7D2D61
:103AF8007E2D7A2D7F2D200899000800831203134C
:103B0800A2002208A1002108C8002008A10021085D
:103B1800C900080083120313A30086132308803EFC
:103B28000A168A1503270A168A150800063083160E
:103B380003139F008312031388018901831603135B
:103B480088018901080083120313A10021080A3A99
:103B5800031DAF2DB02DB32D20088800B32D08000C
:103B680079107911F91179120A128A1500200A16AA
:103B78008A150A168A1561250A168A1508007E080C
:103B88008A007F0882000A168A15C3250A168A1534
:103B98008000840A04087D0603190034FF0A03190B
:103BA800FE0AC72D83120313861301300A168A15DD
:103BB80003270A168A15823083120313A400DD3006
:103BC800A300A30BE52DA40BE52DEA2D0800831215
:103BD8000313A100A0013A3021020318F42DF52D9A
:103BE800FF2D30302102031CFA2DFB2DFF2DA001E3
:103BF8000314A00DFF2D200C012E080083120313BF
:103C0800B3001C30A3008130A40000300A168A15C6
:103C180077270A168A15831203133108B20032086F
:103C2800A30033080A168A11C8200A168A1500301C
:103C38000A168A156B250A168A15080083120313BB
:103C4800A4003D2E2408303EA3002308A0006130C4
:103C58000A168A1582250A168A150130831203135B
:103C6800A3002308D007452ED0014A08452E452E2B
:103C7800452E5008003A0319262E013A0319382E0A
:103C8800452E0800F901FA01FB01FC01FD0183132F
:103C98004830840066300A168A1551250A168A1596
:103CA800A0308400B2300A168A1551250A168A15E2
:103CB8006E30FD001D30FE005930FF006630840074
:103CC8000A168A15C7250A168A1583010A168A1143
:103CD8007E2983120313A401A501722E201C752EC0
:103CE800762E7C2E2208A4070318A50A2308A50708
:103CF80001300310A20DA30DFF3E031D7D2E0130E0
:103D08000310A10CA00CFF3E031D842E21082004E3
:103D1800031D8F2E902E722E912E2508A101A1072A
:103D28002408A001A007982E080083120313260870
:103D38000A168A158E250A168A15BB2E83120313B6
:103D48002508FF00240884000A128A1100210A1697
:103D58008A150A168A156B250A168A1501308312E8
:103D68000313A4070318A50A0030A507BB2E831266
:103D780003132508FF00240884000A128A11002171
:103D88000A168A150038031DCA2ECB2EA22ECC2E59
:103D980008000B1CD02ED12EE52E861AD42ED52E37
:103DA800E32E791AD82ED92EE32E0A168A1130203E
:103DB8000A168A15F4007408FB007916E32E0B1016
:103DC800E52E831203138C1EEA2EEB2EF82E1A080A
:103DD800F4007408FA007919F22EF32EF52E7915ED
:103DE800F62E79148C12F82E7808FF0077088A00CE
:103DF80076088400750E8300FE0E7E0E090083127D
:103E08000313A2005330A000A00B082F8312031342
:103E18002208A00004300310A00CFF3E031D0F2F42
:103E28000F302005A1000608F03921048600103063
:103E3800A000A00B1D2F64008312031306160612A0
:103E48001030A000A00B262F64000F30831203133C
:103E58002205A0000608F039200486001030A000D2
:103E6800A00B342F640083120313061606120800F1
:103E780083120313A1008B130613EA30A000640019
:103E8800A00B432F472F640083120313A2010314CE
:103E9800A20DA208031D512F522F542F6D2F6D2FE5
:103EA800210822050319592F5A2F5C2F06175E2F58
:103EB80006135E2FF730A0006400A00B602F64008B
:103EC800031083120313A20DA208031D6C2F6D2F7C
:103ED800542F0617EA30A0006400A00B702F742F2F
:103EE80064008B17080083120313A6000730A5008F
:103EF8002508A60586132608A50002300310A50D7F
:103F0800FF3E031D822F0310250D40380A168A151F
:103F180003270A168A15831203138617A701083088
:103F28002702031C982F992F9B2FB92FB92F2708E9
:103F38002307840024080318240AFF000A128A11A0
:103F480000210A168A150A168A1503270A168A15E1
:103F5800013083120313A5002508A707083027029C
:103F6800031CB72FB82F9B2FB92F080083120313F8
:103F7800C801C901CB014C14CA0164300A168A155C
:103F88003C270A168A158312031307140630A50066
:103F98001330A400B130A300A30BD02FA40BD02F53
:103FA800A50BD02FD72F30300A168A153C270A16B2
:103FB8008A158312031307100630A5001330A400D6
:103FC800B130A300A30BE62FA40BE62FA50BE62F19
:103FD800ED2F7912323083120313A3002308A000B7
:103FE80061300A168A1582250A168A150A168A1554
:083FF80042250A168A15080093
:02400E00C2CF1F
:00000001FF
